:0A00000012C0FECFFDCFFCCFFBCFF6
:10000A00FACFF9CFF8CFF7CFF6CFF5CFF4CFF3CFBA
:10001A00F2CFF1CFF0CFEFCFEECFEDCFF894EE27BE
:10002A00ECBBE5BFF8E1A4B7A77FA4BFF1BDE1BD72
:10003A008DE0A2E0ED938A95E9F780E8A0E6ED93DA
:10004A008A95E9F7E0E0E3BBE4BBE5BBEFEDEDBF82
:10005A00C0E81EC09098B5D0BCD0CAD0E1E0F0E0AC
:10006A00D2D004C0909AADD0B4D0C2D0219608950F
:10007A00E3E3CCD0E5E0F0E0C6D0E2E3C7D0ECE2BF
:10008A00C5D0E8E0C3D0EDE0C1D0E1E0BFD008952B
:10009A00E0E8E6BDE0E0E6BDEBBBEABBE8BBEFEFBC
:1000AA00E7BBE0E0E2BBE3E0E1BBE0E0E0BFE3BFE7
:1000BA00E2BFE6BFECBFEFBDEEBDEDBDECBDE5BDF9
:1000CA00E4BDEBBDEABDE9BDE8BDEBBFE5BFE9BFF5
:1000DA00EDB9EAB9E0E8E8B9E0E0E1B9EFE0F0E06B
:1000EA0092D0C6DFE2E494D0E1E692D0EDEB90D074
:1000FA00E7EC8ED0EDE28CD08DD0E5E689D0EBEB43
:10010A0087D08AD0E8EB84D0E9EB82D0E0EC7ED0CD
:10011A00E9E77ED0E1EC7CD0E1E67AD07FD0EFEB64
:10012A0077D0E3EC75D0E9EB73D07AD0EEEB70D0F0
:10013A0079D0E0E76DD076D071D0E5EB69D0EDEB00
:10014A0067D070D069D0E4E961D068D069D0E7EBB4
:10015A005FD0E5E65DD0EBEB5BD0E5EB59D0EDEB9C
:10016A0057D0E3EC55D056D05BD0EEEB51D0E7EC4C
:10017A004FD0EFEB4DD0E1E64BD0E0EC49D04CD07C
:10018A0051D048D0E4ED42D0E8EB42D049D0E8E77C
:10019A003FD0E3EB3DD046D041D0EFEB39D0E8EB8E
:1001AA0037D03AD03FD036D03BD036D0E0E730D047
:1001BA00E6EC2ED0E0EC2CD02FD034D02BD0FFCFD1
:1001CA00FFCF919AE8B3EF70E8BBE8B3AE2FE881AE
:1001DA000895E07FEA2BE8BBE1E0F0E0FA93EA93C6
:1001EA0023D09198E1E0F0E0FA93EA931DD0E9CFA9
:1001FA00E295E07FEA2BE8BBE1E0F0E0FA93EA93CC
:10020A0013D091980895FA93EA930EC0EA9322CFF5
:10021A00EA9328CFECEBFCCFEAEBFACFE3E6F8CF90
:10022A00E0E2F6CFEFE6F4CFE991F991309639F0B2
:10023A0080ED97E00197F1F7A8953197C9F70895EE
:00000001FF
