:020000008CC0B2
:10000200FECF26C1FCCFFBCFFACFF9CF6AC1F7CF23
:10001200F6CFF5CFF4CFF3CFF2CFF1CFF0CFEFCFD2
:10002200EECFEDCF1027E80364000A0001000010B4
:100032000001100001002C222B37004552524F5272
:100042000041542B434D47463D300D0041542B4354
:100052004D47533D34330D00303030313030304273
:100062003931003030313831453034313230343387
:100072003730343446303434323034334530303231
:100082003030343344303433303030323030343343
:100092004530343435303434303034333030343326
:1000A20044303434331A0041540D0041542B43522E
:1000B20045473F0D0041542B435042463D224E22BC
:1000C2000D0041542B434D47533D33390D00303021
:1000D20030383141303431343034333230343335E6
:1000E20030343430303434433030323030343345CD
:1000F20030343432303433413034343030343442BA
:1001020030343432303433301A0005008400380081
:10011200060089003D000000F894EE27ECBBE5BF25
:10012200F8E1A4B7A77FA4BFF1BDE1BD8DE0A2E0D5
:10013200ED938A95E9F780E8A0E6ED938A95E9F7D1
:10014200ECE0F1E085919591009761F0A591B59170
:1001520005901590BF01F00105900D920197E1F70E
:10016200FB01F0CFE0E0E3BBE4BBE5BBEFEDEDBFAD
:10017200C4E8D3C05D9BFECFE881ECB92196089517
:10018200E881F981E491E03051F0E881F98131961A
:10019200E883F9833197E491EA93ECDFF1CFE4E16C
:1001A200F0E07BD1A8D177C12224E2E32E1630F40D
:1001B200ABE9A20DE0E0EC932394F7CF5524089528
:1001C2002397EFE4E883EBE4E983E0E0EA8368D194
:1001D20070D1259608952797EBE2E883E3E4E9835B
:1001E200E2E5EA83E5E4EB83E7E4EC83EAE3ED832B
:1001F200E0E0EE8355D1075F5CD12996089587D15F
:10020200EBE9EA93E4E8EA9334D10E2F003011F4DB
:1002120010E00FC00C5F2224ECE02E1628F44FD120
:100222000A954DD10D5FF8CFE6E4E0939900BCDF6B
:1002320011E0E12F72D108951A93EBE9EA93E9E80C
:10024200EA9317D11E2FB0DFA12FEC9119910895D7
:100252000A921A92FA926A937A938A939A93AA9337
:10026200BA93EA93FA93EFB7EA9386EF8A95F1F796
:10027200839929C03320E9F4E0E83E2E96989498B9
:100282008599FECF25D111F426D1FCCFEEE4F0E022
:1002920026D1EAE5F0E023D12224ECE02E1618F470
:1002A20020D12394FACFE5E6F0E019D1949A969AF8
:1002B20001C03324C49AC39AE4EFF1E017D1839BBF
:1002C200FECFC498C398E991EFBFF991E991B99132
:1002D200A9919991899179916991F99019900990CF
:1002E2001895EA93EFB7EA9312D11BB10CB1E12F43
:1002F200EC7171F4E52D5394E5560083E2E3E515C4
:1003020009F455247394E2E3E71511F47724989ADB
:1003120004D1E991EFBFE9911895E0E8E6BDE0E08C
:10032200E6BDEBBBEABBE1E0E8BBE9E1E7BBE0E548
:10033200E2BBE1BBE0E0E0BFE3BFE2BFE6BFECBF90
:10034200EFBDEEBDEDBDECBDE5BDE4BDEBBDEABD6F
:10035200E9BDE8BDE0E8EBBFE0E0E5BFE0E8EABF09
:10036200E0E0E9BFEDB9EBB9E8E9EAB9E6E0E3B903
:10037200E0E0E2B9E1E0E9B9E0E8E8B9E0E0E1B9FA
:10038200C39AC49A7894C098B3D0C09AEAEFF0E0C6
:10039200ADD0969894988599FECFE9EAF0E09FD087
:1003A20097D0D9F3EDEAF0E09AD015DFE13311F0FE
:1003B2009FD0F8CFE7EBF0E092D021DFE030D1F32D
:1003C200C398C49AE1E03E2E829903C0E0E0E315AF
:1003D20031F4332011F4C49801C0C49AF5CFC49803
:1003E200EAEFF0E083D0829902C0C39AFCCFC398AF
:1003F200969894988599FECFE9EAF0E070D068D09B
:10040200D9F3EDEAF0E06BD0E6DEE13311F070D023
:10041200F8CF61D05DD0E9F3E4ECF0E060D0EBE935
:10042200EA93EEE3EA9319D0E03011F4BDDEF4CFA3
:10043200BBDEEAE5F0E053D02224ECE02E1618F4FD
:1004420050D02394FACFE0EDF0E049D0F5DEE53468
:1004520019F3949A969AB8CFFFCF6991A991BB27C5
:10046200EE277C91671709F4EA2F11967723C9F7D3
:100472000895A981BB278A2FE881FF2771917723ED
:1004820011F4E82F08C06D916717C1F38395A82F67
:10049200662391F7EE2722960895FA93EA93089538
:1004A20036D0EBE9EA93EC2FED5FEA93E2DF0E2F11
:1004B2000895A02F1C9178DEE12F2CD00895E22D13
:1004C2002394E1570E2EA02FEC91A02DEC930895CA
:1004D20077DEE0300895E3E4F0E0DFDF51CEDDDFE8
:1004E2004FCEAFE8A20DEC91EA9344CED6DF03C023
:1004F200E8EEF3E0FBCFE991F991309639F08AE921
:1005020093E00197F1F7A8953197C9F708951A93E7
:100512000A930895198108810895099119910895FE
:00000001FF
