:0200000041C0FD
:10000200FECFFDCFFCCFFBCFFACFF9CFF8CFF7CFA2
:10001200F1C0F5CFF4CFF3CFF2CFF1CFF0CFEFCFE6
:10002200080B000C580DE90E000FE410F11101123B
:100032000213E514000A0415562110220716301780
:10004200181816196C1AFB1B401C911DA9230A24AF
:10005200002511265929882C312D0B2E06000E025F
:10006200400705080009FF060703CF04FC0501004D
:100072002D4E414E00494E4600000100A000700086
:100082000000F894EE27ECBBE5BFF8E1A895A4B711
:10009200A77FA4BFF1BDE1BD8DE0A2E0BB27ED9338
:1000A2008A95E9F780E091E0A0E6ED930197E9F700
:1000B200ECE7F0E085919591009761F0A591B591FB
:1000C20005901590BF01F00105900D920197E1F79F
:1000D200FB01F0CFE0E0E3BBE4BBE5BBEFE5EDBF46
:1000E200E1E0EEBFC0EAD0E087C0E881EED0309711
:1000F20019F4C098C19813C0E130A0E0FA0719F4CE
:10010200C09AC1980CC0E230A0E0FA0711F4C0987E
:1001120005C0E330A0E0FA0711F4C09AC19A0FC0FB
:10012200E881EFB9E0E4EEB9E8B7E260E8BFE9B729
:10013200E260E9BF769BFECFE0E0E9BFEFB1219636
:100142000895E0E0EDB9DC9ADD98DF9883E08A95C6
:10015200F1F7DF9A8BE68A95F1F7EAE1EDB9DF98DC
:10016200DE99FECFE0E3B3D043C02297EA81FB8160
:10017200E883F983E981ABD0E881A9D02496089578
:100182001A93E981E068A3D0EFEFA1D01E2FE12FEF
:1001920018812296089522971A93DF98DE99FECF4E
:1001A2003324E7E23E1630F494D0FA93EA93DDDF8B
:1001B2003394F7CF10E03324E7E23E1660F489D09F
:1001C200E983FA83EA81EA93DBDFA981EA1709F07E
:1001D20011E03394F1CF113019F3DF9A188123968D
:1001E2000895DF98DE99FECFEFEFFEE37CD0BDDF0E
:1001F200DF9A0895689A1895E0E8E6BDE0E0E6BD6A
:10020200E3E8EBBBE0EBEABBE0E0E8BBE3E0E7BB43
:10021200E0E0E0BFE1E0E3BFE0E0E2BFEFE1E6BF44
:10022200E0E0ECBFEFBDEEBDEDBDECBDE5BDE4BD74
:10023200EBBDEABDE9BDE8BDE5BFEBBFE9BFECB987
:10024200EDB9E0E8E8B9E0E0E3B9E1B9E6B97894FC
:10025200E1E0EA934ADFE4EFF1E048D072DFEAE05E
:10026200F0E044D098DFBDDFE0E0EA933EDFDF98C4
:10027200DE99FECFE6E32BD0EAE329D0EBE327D0E9
:10028200EFE725D0E8E023D0E3E521D0E5E41FD075
:10029200E8E51DD0EFE41BD0EEE419D0E9E417D075
:1002A200E8E515D0DF9AE1E0F0E020D0DF98DE99B2
:1002B200FECFE5E30CD0E8ECF0E018D0E2E0EA9300
:1002C20014DFDF9AFFCFFFCFFFCFF0E00895EA936C
:1002D20027CFE32DA2E2B0E0F8DFEE0FFF1FEA0F17
:1002E200FB1F12D00895FA93EA930895FCDF00C031
:1002F200E991F991309639F080ED97E00197F1F7A5
:10030200A8953197C9F708950590F491E02D0895C5
:00000001FF
