:0E00000071C0FECFFDCFFCCFFBCFFACFF9CF02
:10000E00F8CFF7CFF6CFF5CFF4CFF3CF8FC1F1CF37
:10001E00F0CFEFCFEECFEDCF30989031FF8F328013
:10002E0028338056344EF635F6F536185C37D651F1
:10003E0038444439A00009210100354D021F010446
:10004E00BCF00500A107124C0880000C80000E16B3
:10005E009B0F90AD10B00013A114148191160002E5
:10006E0018B14019A80F1A3F041C58004252454CB3
:10007E004F4B2D53454E44004252454C4F4B00447E
:10008E004556494345004348414E47450052454178
:10009E0044005374617475730053454355520049BF
:1000AE00444C450001002D4E414E00494E46000085
:1000BE000B0099007A00070080008D000700870072
:1000CE00A00006008E00A70005009400AD00010000
:1000DE00B900B2000000F894EE27ECBBE5BFF8E1E2
:1000EE00A4B7A77FA4BFF1BDE1BD8DE0A2E0ED9363
:1000FE008A95E9F780E8A0E6ED938A95E9F7EEEBAD
:10010E00F0E085919591009761F0A591B5910590DC
:10011E001590BF01F00105900D920197E1F7FB01DB
:10012E00F0CFE0E0E3BBE4BBE5BBEFEDEDBFC0E835
:10013E00FFC0E881A4D1309719F4C398C49813C0B6
:10014E00E130A0E0FA0719F4C39AC4980CC0E2306B
:10015E00A0E0FA0711F4C39805C0E330A0E0FA0757
:10016E0011F4C39AC49A0FC0E881EFB9E0E4EEB976
:10017E00E8B7E160E8BFE9B7E160E9BF769BFECF83
:10018E00E0E0E9BFEFB1219608952297EA81FB8165
:10019E0078D1C198EC8178D1E98176D1E88174D19A
:1001AE00C19A259608952297C198EA81E0686CD18C
:1001BE0071D1E98383E08A95F1F76CD1E88383E00E
:1001CE008A95F1F7C19AE881F98158C022971A935E
:1001DE0010E01E3178F461D1E95DFF4F04900A8280
:1001EE005CD1E85DFF4F0490098257D158D15CD1A4
:1001FE001D5FEFCF5ED110E0163378F44ED1EB5B7E
:10020E00FF4F04900A8249D1EA5BFF4F04900982A6
:10021E0044D154D149D11D5FEFCFEEE45E2E10E0F4
:10022E001633A0F43AD14AD14ED1EB5BFF4FE49195
:10023E00AA81EA1739F431D1EA5BFF4FE491A98123
:10024E00EA1711F0E5E45E2E1D5FEACF10E01E31D5
:10025E00A0F423D124D137D1E95DFF4FE491AA81D7
:10026E00EA1739F41AD1E85DFF4FE491A981EA1734
:10027E0011F0E5E45E2E1D5FEACF188123960895F6
:10028E0026D1E160E983E881EF772CD1F6C01FD14A
:10029E00EE7FE983E881E06825D18DE08A95F1F75C
:1002AE00ECC050D1C198E0ED25D1F4D01E2F00E066
:1002BE00011748F425D1E02FE756EF93EBD0AF911D
:1002CE00EC930F5FF5CFC19AE12F3FD10895E2E590
:1002DE00EA93E0E0F0E818D158DFC19811D1E0E5DB
:1002EE0009D12A9241DF3324321440F409D1A9E90D
:1002FE00A30DEC91EA9338DF3394F6CFC19AC0DFA9
:10030E00FFD008953324E881F981E491E03061F063
:10031E00E32D3394E756AE2FE881F9813196B1D0B3
:10032E003197E491EC93EFCF232CA7C0689A1895E0
:10033E00E0E8E6BDE0E0E6BDEBBBEABBE6E0E8BB2D
:10034E00EEEDE7BBECE0E2BBE0E0E1BBE0BFE1E0FD
:10035E00E3BFE0E0E2BFEFE1E6BFE0E0ECBFEFBD00
:10036E00EEBDEDBDECBDE5BDE4BDEBBDEABDE9BD49
:10037E00E8BDEBBFE5BFE9BFEEE1EDB9E0E0EAB9FC
:10038E00E0E8E8B9E0E0E1B97894E3E0EA93D1DEA1
:10039E00E4EFF1E0BCD0C198EAE0F0E0B8D0C19A49
:1003AE0088D014DFE5E4E515B1F3E6E8F0E0ACD073
:1003BE00A9DF8DDF3324ADD028F4B09903C0ACD0C3
:1003CE003394F9CF64DF3324A4D028F4B09903C05A
:1003DE00A3D03394F9CFB09B3CC063DF2E2E9FD0B9
:1003EE00E0E8A0D0B1F1829903C0E4E9F0E002C0E8
:1003FE00EBE9F0E0FA93EA9385DF69DF332489D0E5
:10040E0028F4B09903C088D03394F9CF40DF332459
:10041E0080D028F4B09903C07FD03394F9CFB09B2D
:10042E0018C03FDF2E2E2220A1F079D0E7E87AD037
:10043E0081F075D0EEE876D021F0E2E0EA9379DE35
:10044E00FFCF6DD0E4E96ED021F0E1E0EA9371DEEA
:10045E00FFCFA1CFFFCFA981BB278A2FE881FF272E
:10046E007191772311F4E82F08C06D916717C1F3CE
:10047E008395A82F662391F7EE2722960895F0E034
:10048E000895E883F9830895EA936EDE83E08A95F2
:10049E00F1F70895EFEFEA9367CEE12FF0CFEA5D23
:1004AE00FF4FE491EA930895EA81FB81FA93EA9370
:1004BE006CCEE5E0F0E0FA93EA9338C0EC5BFF4FC8
:1004CE00E491EA9308956FDEE983FA83E6CF2297EB
:1004DE00E7E0EA9368DED5DFE2E1E983EEE4E88364
:1004EE00E9810895E883E7E0EA93E981FA81FA93D6
:1004FE00EA934BCEEA9338DE84E08A95F1F70895BD
:10050E0084E08A95F1F70895FA93EA930895FCDF53
:10051E000DC0E9E13E160895E1E0F0E0F8CFE9E91B
:10052E00EA930895EA9397DFE0300895E991F991FF
:10053E00309639F088EE93E00197F1F7A895319750
:10054E00C9F708951A930A93089509911991089578
:00000001FF
