:0E0000006AC0FECF53C180C1FBCFFACFF9CF4B
:10000E00F8CFF7CF49C1F5CFF4CFF3CFF2CFF1CF81
:10001E00F0CFEFCF0E000602FF0604070508010918
:10002E002F0A060B000C100D090E7B0F8510781190
:10003E0003120213E51414153017181816196C1A3A
:10004E00C01B001CB21DB6211022E9232A24002554
:10005E001F265929812C352D092E53454355520003
:10006E0049444C4500434C4541525F4F4B0044417F
:10007E00544348494B303236303236004252454CAA
:10008E004F4B3235303235302D52454144004252BD
:10009E00454C4F4B3235303235302D4348414E476B
:1000AE00450001002D4E414E00494E46000006000F
:1000BE00A00068000500A6006E000900AB007300EA
:1000CE000100F400B0000000F894EE27ECBBE5BF91
:1000DE00F8E1A895A4B7A77FA4BFF1BDE1BD8DE05F
:1000EE00A2E0BB27ED938A95E9F780E091E0A0E6C8
:1000FE00ED930197E9F7ECEBF0E085919591009780
:10010E0061F0A591B59105901590BF01F001059094
:10011E000D920197E1F7FB01F0CFE0E0E3BBE4BB0A
:10012E00E5BBEFE5EDBFE1E0EEBFC0EAD0E02BC1ED
:10013E00E881EFB9E0E4EEB9E8B7E260E8BFE9B70D
:10014E00E260E9BF769BFECFE0E0E9BFEFB161C0B0
:10015E00E0E0EDB9DC9ADD98DB9883E08A95F1F763
:10016E00DB9A8BE68A95F1F7EAE1EDB9DB98CE9949
:10017E00FECFE0E368D128C02297DB98CE99FECF60
:10018E00EA81FB81E883F983E9815DD1E8815BD166
:10019E00DB9A57C13324E3E23E1670F4E32DA2E25C
:1001AE00B0E053D1EE0FFF1FEA0FFB1F9DD1FA9364
:1001BE00EA93E2DF3394EFCF0895DB98CE99FECF2A
:1001CE00E0ECFEE344D1D8DFDB9A0895DB98CE99BC
:1001DE00FECFE88138D1DB9A1CC03CD1E1E0F0E0E3
:1001EE0042D1DB98CE99FECFEFE72DD1E8812BD10E
:1001FE003324E8813E1628F438D1E08124D133949B
:10020E00F8CFDB9AE5E336D1C89BFECFC899FECF77
:10021E0021D1219608951A93E6E32CD1C298DB984A
:10022E00CE99FECFEFEF0FD1E0E00DD11E2F33248C
:10023E00311650F41AD1FF93EF93E0E004D1AF9151
:10024E00BF91EC933394F4CFDB9AEAE313D1E12F11
:10025E00199108953324E0E43E1628F406D1A0E067
:10026E00A0833394F8CF08953324E881F981E49183
:10027E00E03079F0E32D3394E8D0EC54FF4FDF01FA
:10028E00E881F9813196E883F9833197E491EC9313
:10029E00ECCFE32D229608957894689A1895ECD0B9
:1002AE007894C899FECFB7DF2E2EF6D0E0EAF0E0B4
:1002BE00F6D011F0DA9ADF98EFD0E6EAF0E0EFD060
:1002CE0011F0DA98DF9AE8D0EBEAF0E0E8D081F0AE
:1002DE003324E5E03E1660F4DA98DF9AE8ECF0E0BD
:1002EE00C2D0DA9ADF98E8ECF0E0BDD03394F1CFCB
:1002FE00B1DFE4EFF1E0B7D038C0BED07894D3D000
:10030E0049DF5BDFECE2F1E0AED0D1D011F4D4D016
:10031E0009F00CC0DA9ADF9AD4D0C9D011F4CCD03F
:10032E0009F003C0ECE7F0E0CFD00AC0B09903C0EB
:10033E00EAE8F0E0C9D0B19903C0ECE9F0E0C4D02E
:10034E0089DFEAB7E061EABFE0E1EBBFE4E392D018
:10035E00B8D0ADD011F0B0D009F4FBCFEAB7E0635E
:10036E00EABFE0E2EBBFDA98DF98E991EFBFF991CF
:10037E00E991B991A9919991899179916991F990A0
:10038E00199009901895E0E8E6BDE0E0E6BDE8E0DA
:10039E00EBBBECEBEABBE3E0E8BBE0E0E7BBE0BFC6
:1003AE00E1E0E3BFE0E0E2BFEFE1E6BFE0E0ECBF9B
:1003BE00EFBDEEBDEDBDECBDE5BDE4BDEBBDEABDF3
:1003CE00E9BDE8BDE5BFE1E0E2BBE3E0E0BDE0E2B0
:1003DE00EBBFE0E3EABFE2E0E9BFE0E0ECB9EAE15F
:1003EE00EDB9E0E8E8B9E0E0E3B9E1B9E6B978944F
:1003FE00DA9ADF9866D057D0CDDEDFDEDA98DF9856
:10040E00E9E338D0EAE0F0E02ED0E5B7E063E5BFEF
:10041E008895E4EFF1E027D0F1CFFFCFAA81BB8121
:10042E00CD01E881F9817191772311F4FC0109C0A6
:10043E006D916717C1F30196DC01662391F7EE27E4
:10044E00FF2724960895EA9373CEF0E00895FA9369
:10045E00EA930895E6E3EA93B9DEEAE3EA93B6DEB9
:10046E00EBE3EA93B3CEF3DF33C0E32DEEDFEC54D0
:10047E00FF4F0895EA93AACE0A921A92FA926A93BD
:10048E007A938A939A93AA93BA93EA93FA93EFB7CD
:10049E00EA93E0E0EBBF0895E4EBF0E0D8CFD7DFCE
:1004AE00BDDF3097089554DEEAE0F0E0DCCFA0E047
:1004BE00B099A1E0A0300895A0E0B199A1E0A030DC
:1004CE000895E8EEF3E0CFCFC2DFCEDEEA9385CE1D
:1004DE00E991F991309639F080ED97E00197F1F7B7
:1004EE00A8953197C9F708950590F491E02D0895D8
:00000001FF
