:1000000043C17FC3A7C3FCCFFBCFFACFF9CFF8CF53
:10001000F7CFF6CFF5CFE7C3F3CFF2CFF1CFF0CFE5
:10002000EFCFEECFEDCF06000602FF06040705086E
:1000300001092F0A060B000C100D090E7B0F85100D
:10004000781103120213E514141530171818161935
:100050006C1AC01B001CB21DB6211022E9232A24F1
:1000600000251F265929812C352D092E1027E8033C
:1000700064000A000100001000011000010041545A
:100080000D0041542B435245473F0D002C222B3786
:100090000041542B435553443D312C222A313030FA
:1000A00023220D0041542B435553443D312C222A29
:1000B00031303223220D002B435553443A00303463
:1000C0003131303433303034334230343330303403
:1000D00033443034343100303434300041542B4315
:1000E0004D47533D253032640D00303030313030D3
:1000F00030423931003030303825303258004154E8
:100100002B435042463D224E31220D0041542B4399
:100110005042463D224E32220D0041542B43504264
:10012000463D224E33220D0041542B435042463D62
:10013000224E34220D0041542B435042463D224E64
:1001400035220D0041542B435042463D224E36226B
:100150000D0041542B435354413D3134350D004182
:10016000542A505353544B493D310D0041544422BD
:1001700000223B0D0041542B434D47463D300D00BE
:1001800041542B434D47533D33390D003030303807
:10019000314130343134303433323034333530342B
:1001A000343030343443303032303034334530340E
:1001B00034323034334130343430303434423034FB
:1001C0003432303433301A004252454C4F4B3100F8
:1001D0004348414E47450053454355520049444C1E
:1001E000450041542B434F50533F0D002B434F507C
:1001F000533A004265656C696E650041542B434C6F
:1002000049503D310D0052494E47004154480D00C0
:1002100041542B435042573D312C2200222C313483
:10022000352C224E31220D0041542B435042533F76
:100230000D0001002D4E414E00494E4600000500C4
:1002400060018C0007006501B70019006C01BE0059
:1002500005008501D70005008A018C0008008F0188
:10026000C80107009701D00107009E01EC010800BA
:10027000A501F3010500AD0106020400B2018D00E5
:100280000100020432020000F894EE27ECBBF1E01A
:10029000FBBFEBBFE5BFF8E1F1BDE1BD8DE0A2E042
:1002A000BB27ED938A95E9F780E094E0A0E6ED9313
:1002B0000197E9F7EEE3F2E085919591009761F0FF
:1002C000A591B59105901590BF01F00105900D9293
:1002D0000197E1F7FB01F0CFEFE5EDBFE4E0EEBF02
:1002E000C0E6D1E09CC2E881B4D3E435A0E0FA07CF
:1002F00019F4AC98AD9813C0E235A0E0FA0719F4F0
:10030000AC9AAD980CC0E734A0E0FA0711F4AC98B1
:1003100005C0EF34A0E0FA0711F4AC9AAD9AB2C16F
:100320005D9BFECFE881ECB9ADC195D3E491E0309F
:1003300019F094D39AD3F9CFE4E1F0E098D312D432
:10034000DEC198D3E0E0F2E098D328F499D3E0E05E
:10035000EC939BD3F7CF4424552408952397EFE4DF
:10036000E883EBE4E983E0E0EA8393D39CD3279628
:1003700008952797EBE2E883E3E4E983E2E5EA8383
:10038000E5E4EB83E7E4EC83EAE3ED83E0E0EE838E
:1003900080D3275F3F4F87D32B960895999907C045
:1003A000A89887D389D3A89AEAEFF0E004C0AA9866
:1003B00085D3AA9A7ED3FA93EA93D4D3999BEECFAE
:1003C000EEE7F0E07ED3CADFE030D1F3E2E8F0E020
:1003D00078D36FD371D3CDDFE133C1F70895E3D381
:1003E00072D3E0E6F1E072D39F01022E032A21F4DA
:1003F00010E0E12FDDD32BC32C5F3F4F3BD368D3FD
:1004000048F443D368D3215030403FD364D32D5FA9
:100410003F4FF5CFE6E4E093C00393DF11E0E12F17
:10042000C7D315C32C97BFD3E8895ED319F4EEEF79
:10043000F0E022C0E230A0E0FA0719F4ECE0F1E0CD
:100440001BC0E330A0E0FA0719F4EAE1F1E014C0C0
:10045000E430A0E0FA0719F4E8E2F1E00DC0E5307D
:10046000A0E0FA0719F4E6E3F1E006C0E630A0E008
:10047000FA0729F4E4E4F1E0FA93EA9356DF1ED395
:1004800022D3EAE8F1E022D38F01002E012AA1F065
:100490000E5F1F4FEFD21CD370F4F401DE011496EF
:1004A000EA0FFB1F0F01D801EC91D001EC930F5F15
:1004B0001F4FEBD2F0CF03C030E0E32F1BC041DF72
:1004C000E2E5F1E0FED2FAD2EFE5F1E0FAD2F6D2BF
:1004D000ECE6F1E0F6D2CED2FBD228F4DE0114969F
:1004E00008D3D3D2F9CFE1E7F1E0EBD2E8E9FAE3C0
:1004F000E3D227DF5DD3619608951A93E981F4D2A0
:1005000019F4EEEFF0E022C0E230A0E0FA0719F4AF
:10051000ECE0F1E01BC0E330A0E0FA0719F4EAE1F7
:10052000F1E014C0E430A0E0FA0719F4E8E2F1E0E9
:100530000DC0E530A0E0FA0719F4E6E3F1E006C0EB
:10054000E630A0E0FA0729F4E4E4F1E0FA93EA9354
:10055000ECDEB4D244DFE03021F410E0E12F18816A
:10056000CEC0E5E7F1E0ADD2F9DEE030D1F3E9DE6F
:10057000E0E8F1E0A6D2A7D2EEE3EA9348D23097C2
:10058000B1F3DFDEEAEEF0E09CD274D2A1D228F41F
:10059000A6EBB3E0AED279D2F9CFECE8F1E091D29C
:1005A000D0DEE8E8F3E188D21881A9C0E881EFB98C
:1005B000779BFECFEFB166C0E0E0EDB9C59AC39876
:1005C000C29881E08A95F1F7C29A81E38A95F1F7A2
:1005D000E0E5EDB9C298B499FECFE0E38ED227C032
:1005E0002297C298B499FECFEA81FB81E883F98310
:1005F000E98183D2E88181D2C29A29C23BD2E3E267
:10060000F0E03BD260F4F401A6E2B0E0EE0FFF1F91
:10061000EA0FFB1FB3D22BD2E3DF37D2F0CF08951E
:10062000C298B499FECFE0ECFEE321D2D9DFC29AA2
:100630000895C298B499FECFE8815FD2C29A22C0D1
:100640005ED266D2C298B499FECFEFE756D2E88167
:1006500054D210D2E8815FD230F462D2EC914DD204
:1006600014D23197F7CFC29AE0E4EBBFE5E35DD255
:10067000839BFECF8399FECF42D2EAB7E068EABF00
:10068000E0ECEBBF219608951A93E6E34ED2C298B0
:10069000B499FECFEFEF31D2E0E02FD21E2FEAD196
:1006A000E12F39D268F4F401EE53FC4FFF93EF933E
:1006B000E0E023D2AF91BF91EC93E7D13197F0CF37
:1006C000C29AEAE332D2E12F19910895D3D1E0E43E
:1006D000F0E0D3D128F424D2E0E0EC93D6D1F7CFE8
:1006E0000895C8D1B8D1E491E03041F0CED131972E
:1006F000EE53FC4FDF01B2D1EC93F4CFE82D2296FC
:10070000089515D2E0E8EBBFE8ECF0E0D5D1EFE0DA
:10071000E71511F4829901C017C07894ABD115D2B6
:1007200028F416D218D21BD2B0D1F9CFE1E0EA9367
:10073000E4DEE1E0EA9376DE9DD107D228F408D228
:100740000AD20DD2A2D1F9CFEAB7E064EABFE0EC59
:10075000EBBF3BC0ECD11A938399FECF95DF1E2FE0
:10076000E2ECF3E084D1EFE8F1E0B0D1309749F169
:10077000E2ECF3E07CD1E7E9F1E0A8D1309739F081
:10078000EFE0E71511F4772402C0EFE07E2E9EDF44
:10079000B6D1EFE0E71539F4E7EDF1E068D1A1DF7C
:1007A0001E2FE2E506C0EDEDF1E061D19ADF1E2FCC
:1007B000E7E4EA9398DDE3E0F0E07ED11A9340DFCE
:1007C000A7D1E4E3B2D182DF1991E991EFBFF991AA
:1007D000E991B991A9919991899179916991F9904A
:1007E000199009901895EA93FA93EFB7EA93DDD13F
:1007F0001BB10CB1E12FEC7161F4E0E0F2E0E41523
:10080000F50539F0F20131962F013197EA54FE4F88
:100810000083D3D1E991EFBFF991E9911895E4E014
:10082000E8BBECE2E7BBE5E0E5BBE5E3E4BBE4E025
:10083000E2BBE2E0E1BBE0E0E3BFE2BFEFBDEEBD63
:10084000EDBDECBDE7BDE6BDEBBDEABDE9BDE8BD74
:10085000E2BDE5BDE4BDE3BDEBB7E06CEBBFEFE0AF
:10086000E5BFE0ECEABFE0E0E9BFEBB9E8E9EAB9EF
:10087000E6E8E0BDE0E0E0BDE1E0E9B9E0E8E8B9E4
:10088000E0E0E0BFE6B9E0E5EDB9E0E0EEB9E6BFF3
:10089000F894E7E4EA9327DD0CD10ED1EBD0E0E049
:1008A000F1E0EBD040F4A1E0B0E0A80DB91DEFEF0E
:1008B00069D1EBD0F4CF80DEEAE0F0E0FDD09EDE3F
:1008C000AFDE1DD1E4E331D123D1EAB7E068EABF5E
:1008D000789464DDE2EEF1E0F4D0E2E3F0E0ECD015
:1008E000F2D0EEE9F1E0F2D03097A1F3ECD0E5EAF6
:1008F000F1E0ECD0309721F0A0E0B0E0E1E003C0FF
:10090000A0E0B0E0E0E03ED11CDD29D1EBEFF1E06A
:10091000D8D017DDAFD0EEE1F0E0AFD090F4D3D077
:10092000EDEAF1E0D3D0309741F012D1EBE0F2E004
:10093000C8D0E8E8F3E1C0D004C0BBD0BDD0A5D09A
:10094000EACFC1D0E2EBF1E0C1D05F010A2C0B2865
:1009500009F441C0F50131965F018CD0B9D068F43B
:10096000F401EA54FC4F0F01D501EC91D001EC9356
:10097000F50131965F0189D0F1CFE3DCE9D0EEEFEC
:10098000F0E09FD0E5D09FD0E6EBF3E09FD030972A
:10099000B9F4E0E1F2E095D06DD09AD028F4A6EB5E
:1009A000B3E0A7D072D0F9CFECE1F2E08AD062D008
:1009B000CCD028F4D4D0CCD0CED067D0F9CF0BC0D7
:1009C00059D0C3D040F4E4E5EA938DDCC1D0C7D060
:1009D000BFD05BD0F6CF72D0E8E2F2E072D0E8E9A7
:1009E000FAE36AD047D0E0E0F1E047D050F4F401F8
:1009F000EF5FFF4F0F0144D0EC91D001C3D045D041
:100A0000F2CF7724E7E4EA936EDCFFCFFFCF699162
:100A1000A991B991EE27FF277C91671709F4FD0191
:100A200011967723C9F70895AA81BB81CD01E8818A
:100A3000F9817191772311F4FC0109C06D91671759
:100A4000C1F30196DC01662391F7EE27FF27249678
:100A50000895F0E00895E881F9810895FCDF31966A
:100A6000E883F9833197E4910895EA9359CCFA9396
:100A7000EA9308958824992408958E169F06089570
:100A8000A6EBB1E0A80DB91D0895F40131964F0110
:100A9000089589D0E6EBF1E0EADFFE013696E7DF64
:100AA000C3DF9F010895D9011C914BDCE12F80D059
:100AB0000895E8EEF3E00895DADF54C0E4E6F0E0EC
:100AC000FBCFD5DF32CCE6EBF1E0D1CFD0DFACCF3E
:100AD000ECE0F0E0D2CF3197EA54FC4F0F01D9019E
:100AE000EC91D001EC930895B4DFE130A0E0FA0777
:100AF0000895A80DB91DEC91B8CFEA9357CDE6E360
:100B0000EA9397DDEAE3EA9394DDEBE3EA9391CD90
:100B1000E1E0F0E0D1CFD4019CDFAE17BF0708952C
:100B2000A2ECB3E0A80DB91D0895EA9382CD0A9214
:100B30001A92FA926A937A938A939A93AA93BA939F
:100B4000EA93FA93EFB7EA930895E5E0F0E095CFE2
:100B5000ECE2F1E0B1CFE7E4EA93C5DBF9CFE2E5FF
:100B6000EA93C1CBE991F991309639F08AE993E0A3
:100B70000197F1F7A8953197C9F708950590F49179
:100B8000E02D0895E19B02C0A895FCCF9FB7F89493
:100B9000AEBBBFBBE09A8DB3E81719F0EDBBE29A8C
:100BA000E19A9FBF08953A932A931A930A9308955E
:100BB0003B812A811981088108950991199108952D
:00000001FF
