:100000004CC0FECFF4C0FCCFFBCFFACFF9CFF8CF76
:10001000F7CFF6CFF5CFF4CFF3CFF2CFF1CFF0CFCC
:10002000EFCFEECFEDCF080B000C580DE90E000F0F
:100030008410F11104120213E514000A041556216C
:10004000102207163017181816196C1AFB1B401CC3
:10005000911DA9230A24002511265929882C312D08
:100060000B2E0E000E02400705080009FF060703CD
:10007000CF04FC051027E80364000A00010000100B
:1000800000011000010001002D4E414E00494E4676
:1000900000000100600186000000F894EE27ECBB30
:1000A000F1E0FBBFEBBFE5BFF8E1F1BDE1BD8DE0E5
:1000B000A2E0BB27ED938A95E9F780E094E0A0E603
:1000C000ED930197E9F7E2E9F0E0859195910097CA
:1000D00061F0A591B59105901590BF01F0010590D3
:1000E0000D920197E1F7FB01F0CFEFE5EDBFE4E002
:1000F000EEBFC0E6D1E0C8C0E8812CD1309719F43A
:10010000AC98AD9813C0E130A0E0FA0719F4AC9AAE
:10011000AD980CC0E230A0E0FA0711F4AC9805C02D
:10012000E330A0E0FA0711F4AC9AAD9A05C0E8817B
:10013000EFB9779BFECFEFB121960895E0E0EDB9DE
:10014000C59AC398C29881E08A95F1F7C29A81E373
:100150008A95F1F7E0E5EDB9C298C499FECFE0E3E6
:10016000FBD043C02297EA81FB81E883F983E981D0
:10017000F3D0E881F1D0249608951A93E981E068DC
:10018000EBD0EFEFE9D01E2FE12F188122960895D2
:1001900022971A93C298C499FECF5524E7E25E16BF
:1001A00030F4DCD0FA93EA93DDDF5394F7CF10E01C
:1001B0005524E7E25E1660F4D1D0E983FA83EA8140
:1001C000EA93DBDFA981EA1709F011E05394F1CF3C
:1001D000113019F3C29A188123960895C298C499D0
:1001E000FECFEFEFFEE3C4D0BDDFC29A08950A92BE
:1001F0001A92FA926A937A938A939A93AA93BA93E9
:10020000EA93FA93EFB7EA93E2E0B5D0E8ECF0E0D6
:10021000B4D0E6E3A1D0EBEF9FD0EFEF9DD04E2E10
:10022000E42DA0E0B0E0BBD0C29AC298C499FECF42
:10023000EFEF92D0E1E05E2E541468F4E52D8AD001
:10024000E050F040FF93EF93E0E086D0AF91BF9194
:10025000A6D05394F1CFC29AC298C499FECFEAE3D4
:100260007BD0E4E379D0C29AE1E085D0E991EFBF99
:10027000F991E991B991A9919991899179916991AE
:10028000F990199009901895EDE0E8BBECE2E7BB16
:10029000E0E0E5BBE0E3E4BBE8E0E2BBE0E0E1BBDB
:1002A000E3BFE2BFEFBDEEBDEDBDECBDE7BDE6BD1A
:1002B000EBBDEABDE9BDE8BDE2BDE5BDE4BDE3BD22
:1002C000EBBFECE0E5BFE0E8EABFE0E0E9BFEAB998
:1002D000E0E8E8B9E0E0E0BFE6B9E0E5EDB9E0E08C
:1002E000EEB9E6BF78945524E0E85E1640F4A52DFB
:1002F000B0E0A050B040EFEF52D05394F5CF1EDFE6
:10030000EAE0F0E03AD044DF69DFECE2F1E035D03A
:10031000C298C499FECFE6E31FD0EAE31DD0EBE319
:100320001BD0E4E319D0E1E0F0E027D0E1E023D0F6
:10033000E0E8EABFEBB7E068EBBFFFCFC09B06C0C9
:10034000E2E019D0E4E6F0E018D002C0E1E013D01A
:10035000F5CFFFCFF0E00895EA93E9CEE52DA6E2D0
:10036000B0E0F8DFEE0FFF1FEA0FFB1F14D0089577
:10037000FA93EA930895EA93BFCEFADF00C0E991B9
:10038000F991309639F08AE993E00197F1F7A89551
:100390003197C9F708950590F491E02D0895E19BF8
:1003A00002C0A895FCCF9FB7F894AEBBBFBBE09A44
:1003B0008DB3E81719F0EDBBE29AE19A9FBF08955B
:00000001FF
