:020000000C945E
:10000200E7010C9400000C9400000C9400000C9486
:10001200B1070C9400000C94E5080C9400000C94B9
:1000220000000C9400000C9400000C9400000C944E
:1000320000000C9400000C9400000C9400000C943E
:1000420000000C9400000C9400000C9400000C942E
:10005200860F0C9400000C9400000C9400000C9489
:1000620000000C9400000C9400000C9400000C940E
:1000720000000C9400000C94000006000602FF062B
:100082000407050801092F0A060B000C100D090EC2
:100092007B0F8510781103120213E5141415301723
:1000A200181816196C1AC01B001CB21DB62110229A
:1000B200E9232A2400251F265929812C352D092EB2
:1000C2001027E80364000A0001000010000110007C
:1000D2000100000041540D0041542B435245473F5B
:1000E2000D0041542B434C49503D310D002C222B25
:1000F200370041542B435553443D312C222A313091
:100102003023220D0041542B435553443D312C22C0
:100112002A31303223220D002B435553443A00300A
:1001220034313130343330303433423034333030A0
:100132003433443034343100303434300041542BC1
:10014200434D47533D253032640D0030303031305D
:1001520030304239310030303038253032580041A9
:10016200542B435042463D224E31220D0041542B26
:10017200435042463D224E32220D0041542B435001
:1001820042463D224E33220D0041542B43504246FB
:100192003D224E34220D0041542B435042463D2213
:1001A2004E35220D0041542B435042463D224E36DD
:1001B200220D0041542B435354413D3134350D003F
:1001C20041542A505353544B493D300D004154443D
:1001D2002200223B0D0041542B434D47463D300D3A
:1001E2000041542B434D47533D34350D00303030E0
:1001F20038323030343134303433303034343230D9
:1002020034343730343338303433413030323000E4
:10021200303033310030303332003030333300305D
:100222003033340030303335003030333600303044
:1002320033370030303338003030323030343432FB
:100242003034343030343335303433323034334573
:1002520030343333303433301A0041542B4350425C
:10026200573D312C2200222C3134352C224E3122A2
:100272000D0041542B435042573D322C2200222C78
:100282003134352C224E32220D0041542B43504240
:10029200573D332C2200222C3134352C224E33226E
:1002A2000D0041542B435042573D342C2200222C46
:1002B2003134352C224E34220D0041542B4350420E
:1002C200573D352C2200222C3134352C224E35223A
:1002D2000D0041542B435042573D362C2200222C14
:1002E2003134352C224E36220D004252454C4F4BB2
:1002F200004348414E474500534543555200494447
:100302004C45004441544348494B0041542B43500F
:1003120042573D310D0052494E47004154480D00AD
:1003220041542B435042573D320D0041542B435010
:1003320042573D330D0041542B435042573D340D3B
:100342000041542B435042573D350D0041542B433D
:100352005042573D360D000001002D4E414E0049DE
:100362004E46000005000002EF00070005021A01D8
:1003720019000C022101050025023A0105002A029A
:10038200EF0004002F02F00007003302EC02070026
:100392003A02F3020800410205030500490218036C
:1003A20005004E0218030500530218030500580207
:1003B200180305005D02180305006202180301001C
:1003C2000700D4000100B3045A030000F894EE279A
:1003D200EFBBF1E0F5BFE5BFF8E1A895A4B7A77FB1
:1003E200A4BFF0936000E09360008DE0A2E0BB2721
:1003F200ED938A95E9F780E094E0A0E0B1E0ED9317
:100402000197E9F7E6E6F3E085919591009761F0AF
:10041200A591B59105901590BF01F00105900D923F
:100422000197E1F7FB01F0CFE0E0EEBBEFEFEDBFAC
:10043200E4E0EEBFC0E0D2E00C94A30F2197149841
:100442000E948110E883552466240E94861058F485
:10045200E881E17011F4129801C0129A0E948B1087
:100462000E949F10F2CF0E94A410E88355246624B4
:100472000E94861058F4E881E17011F4129801C0CC
:10048200129A0E948B100E949F10F2CF0E94A91014
:10049200E883552466240E94861058F4E881E170AE
:1004A20011F4129801C0129A0E948B100E949F10A0
:1004B200F2CF159A149A0E94AE101498159859C248
:1004C2001A9310E055246624E9810E94B410A8F41E
:1004D200AC81BD810D90AC83BD83AA81BB81119695
:1004E200AA83BB8311970E94AA12E01511F010E0B3
:1004F20004C01F5F0E94BA10E7CFE12F1881269631
:100502000895A881A43489F50E94C11019F0EFEF73
:100512007E2E2FC20E94CD1019F0EFEF7E2E29C23F
:100522000E94D91019F0EFEF7E2E23C20E94E5102F
:1005320019F0EFEF7E2E1DC20E94F11019F0EFEFBD
:100542007E2E17C20E94FD1019F0EFEF7E2E11C20F
:100552000E94091119F0EFEF7E2E0BC20E941511B5
:1005620019F0EFEF7E2E05C227C0A881A23421F533
:100572000E94211119F0EFEF7E2EFBC10E942D1176
:1005820019F0EFEF7E2EF5C10E94391119F0EFEF4D
:100592007E2EEFC10E94451119F0EFEF7E2EE9C1C8
:1005A2000E94511119F0EFEF7E2EE3C10E945D11FE
:1005B20019F0EFEF7E2EDDC1E72D0E94691179F46B
:1005C200552466240E946E1148F4A52DB62DAD5F08
:1005D200BF4F0E9473110E949F10F4CFF6C0E23009
:1005E200A0E0FA0779F4552466240E946E1148F4BB
:1005F200A52DB62DA65FBF4F0E9473110E949F10BA
:10060200F4CFE3C0E330A0E0FA0779F4552466247E
:100612000E946E1148F4A52DB62DAF5EBF4F0E9409
:1006220073110E949F10F4CFD0C0E430A0E0FA070B
:1006320079F4552466240E946E1148F4A52DB62D36
:10064200A85EBF4F0E9473110E949F10F4CFBDC0DD
:10065200E530A0E0FA0779F4552466240E946E1171
:1006620048F4A52DB62DA15EBF4F0E9473110E94C2
:100672009F10F4CFAAC0E630A0E0FA0779F455241F
:1006820066240E946E1148F4A52DB62DAA5DBF4FB7
:100692000E9473110E949F10F4CF97C0E730A0E030
:1006A200FA0779F4552466240E946E1148F4A52DA8
:1006B200B62DA35DBF4F0E9473110E949F10F4CF0D
:1006C20084C0E830A0E0FA0779F4552466240E9439
:1006D2006E1148F4A52DB62DAC5CBF4F0E9473116C
:1006E2000E949F10F4CF71C0EB30A0E0FA0779F4BA
:1006F200552466240E946E1148F4A52DB62DA55CE2
:10070200BF4F0E9473110E949F10F4CF5EC0EC3065
:10071200A0E0FA0779F4552466240E946E1148F489
:10072200A52DB62DAE5BBF4F0E9473110E949F1084
:10073200F4CF4BC0ED30A0E0FA0779F455246624DB
:100742000E946E1148F4A52DB62DA75BBF4F0E94E3
:1007520073110E949F10F4CF38C0EE30A0E0FA0768
:1007620079F4552466240E946E1148F4A52DB62D05
:10077200A05BBF4F0E9473110E949F10F4CF25C04F
:10078200EF30A0E0FA0779F4552466240E946E1136
:1007920048F4A52DB62DA95ABF4F0E9473110E948D
:1007A2009F10F4CF12C0E031A0E0FA0781F4552483
:1007B20066240E946E1148F4A52DB62DA25ABF4F91
:1007C2000E9473110E949F10F4CFEFED7E2ED1C0D4
:1007D200E881EEBDEDB5E078E9F3EEB5CAC0E0E040
:1007E200ECBD2F9A2D982C9882E08A95F1F72C9ADD
:1007F20082E68A95F1F7E0E5ECBD2C981E99FECFD2
:10080200E0E3EA93E5DF2DC022972C981E99FECFF4
:10081200EA81FB81E883F983E9810E947D112C9AA8
:1008220044C155246624E3E2F0E05E166F0680F4CC
:10083200E52DF62DACE7B0E0EE0FFF1FEA0FFB1F30
:100842000E94A612FA93EA93DFDF0E949F10EBCF79
:1008520008952C981E99FECFE0ECFEE3FA93EA93FA
:10086200D3DF2C9A08952C981E99FECFE881EA9343
:10087200AFDF2C9A7EC00E9484110E94AE102C9889
:100882001E99FECFEFE70E947D1155246624E88170
:100892000E94B41040F4A3E7B4E00E94901198DFE4
:1008A2000E94BA10F4CF2C9AE4E0E0936800E5E3EA
:1008B200EA93D9DF009BFECF0099FECF0E948411FC
:1008C200DA9AE5E0E093680054C01A93E6E3EA930B
:1008D200CADF2C981E99FECFEFEFEA9379DFE0E0B2
:1008E200EA9376DF1E2F55246624E12F0E94B4106E
:1008F20078F4E52DF62DED58FB4FFF93EF93E0E0F2
:10090200EA9366DFAF91BF91EC930E94BA10EDCFEC
:100912002C9AEAE3EA93A7DFE12F1991089555246F
:100922006624E0E4F0E05E166F0648F4A3E7B4E064
:10093200A50DB61DE0E0EC930E949F10F2CF089542
:1009420055246624E881F981E491E03049F00E945F
:10095200BA10ED58FB4FDF010E949511EC93F2CFD4
:10096200E52DFCC2E091C000E072E1F3E881E09382
:10097200C60021960895E881F981E491E03029F0DA
:100982000E949511EA93EEDFF6CFE4E1F0E00E94D7
:100992009D11E4C255246624E0E0F2E05E166F0683
:1009A20040F4A7E6B2E0A50DB61DEC930E949F109D
:1009B200F3CF3324442408952397EFE4E883EBE450
:1009C200E983E0E0EA830E94A1110E94AF11279619
:1009D20008952797EBE2E883E3E4E983E2E5EA831B
:1009E200E5E4EB83E7E4EC83EAE3ED83E0E0EE8326
:1009F2000E94A111275F3F4F0E94AF112B960895CD
:100A0200199907C028980E94B711289AEAEFF0E0D6
:100A120006C02A980E94BA112A9AE8EEF3E0FA93E5
:100A2200EA930E949A12199BEBCFE6EDF0E00E9446
:100A3200BD11C2DFE030C9F3EAEDF0E00E94BD1162
:100A42000E94B711C6DFE133B9F7E4EEF0E00E948D
:100A5200BD11A0DF08950E94C7120E94C111E0E0FB
:100A6200F2E00E94C6119F01022E032A11F410E047
:100A720019C02C5F3F4F552466240E94CA1168F4A6
:100A82000E94BA100E94CF11215030400E94BA1029
:100A92000E94CF112D5F3F4FF0CFE6E4E093710447
:100AA20079DF11E0E12F0E94CC12249608952C9751
:100AB2000E94C71278940E9481100E94D711E8897F
:100AC2000E94691119F4E1E6F1E022C0E230A0E0EF
:100AD200FA0719F4EFE6F1E01BC0E330A0E0FA07F1
:100AE20019F4EDE7F1E014C0E430A0E0FA0719F4DC
:100AF200EBE8F1E00DC0E530A0E0FA0719F4E9E90E
:100B0200F1E006C0E630A0E0FA0729F4E7EAF1E0F6
:100B1200FA93EA9330DF0E94BA110E94C111EAE20D
:100B2200F2E00E94C6118F01002E012AC1F00E5F71
:100B32001F4F552466240E94CA1180F4E52DF62D1C
:100B4200DE011496EA0FFB1F0F01D801EC91D001D0
:100B5200EC930F5F1F4F0E949F10EDCF07C030E054
:100B62000E9481100E94DD11E32F2CC013DFE5EB00
:100B7200F1E00E94BD110E94BA11E2ECF1E00E9484
:100B8200BD110E94BA11EFECF1E00E94BD11552493
:100B920066240E94CA1140F4DE0114960E9490114C
:100BA200E1DE0E949F10F5CFE4EDF1E00E94BD115D
:100BB200E0E1F7E20E949D11EDDE0E9481100E94A9
:100BC200DD113CDC0E94CC12619608951A93789450
:100BD2000E9481100E94D711EA810E94691119F4C2
:100BE200E1E6F1E022C0E230A0E0FA0719F4EFE614
:100BF200F1E01BC0E330A0E0FA0719F4EDE7F1E001
:100C020014C0E430A0E0FA0719F4EBE8F1E00DC0FB
:100C1200E530A0E0FA0719F4E9E9F1E006C0E630B0
:100C2200A0E0FA0729F4E7EAF1E0FA93EA93A3DEF7
:100C32000E94BA1110DFE03039F410E00E948110F6
:100C42000E94DD11E12F74C0E8EDF1E00E94BD11B8
:100C5200B3DEE030C9F39EDEE3EEF1E00E94BD11A7
:100C62000E94C111EEE3EA930E945F10309799F35C
:100C720091DEEDE4F1E00E94BD11552466240E944C
:100C8200CA1130F40E94E2116DDE0E949F10F7CF6C
:100C9200EFEEF1E00E94BD11E9810E94691119F4A1
:100CA200E2E1F2E030C0E230A0E0FA0719F4E7E155
:100CB200F2E029C0E330A0E0FA0719F4ECE1F2E037
:100CC20022C0E430A0E0FA0719F4E1E2F2E01BC02E
:100CD200E530A0E0FA0719F4E6E2F2E014C0E630EB
:100CE200A0E0FA0719F4EBE2F2E00DC0E730A0E071
:100CF200FA0719F4E0E3F2E006C0E830A0E0FA07F0
:100D020029F4E5E3F2E0FA93EA9335DEEAE3F2E06E
:100D12000E94BD11E8EBFBE00E949D113BDEE8E87A
:100D2200F3E10E949D110E9481100E94DD1186DB79
:100D32001881239608951A9310E80E94C111EFE2D8
:100D4200F2E00E94C6110E94E51111F40C94AE0764
:100D5200E1E0F0E09E0EAF1E552466240E94CA1107
:100D620078F4A52DB62DA959BB4FE92DFA2D319650
:100D72009E2EAF2E3197E081EC930E949F10EECF12
:100D820009DE0E94BA11E1E6F1E00E94BD110E9463
:100D9200BA11EFE6F1E00E94BD110E94BA11EDE72F
:100DA200F1E00E94BD110E94BA11EBE8F1E00E944D
:100DB200BD110E94BA11E9E9F1E00E94BD110E9441
:100DC200BA11E7EAF1E00E94BD110E94BA11E9816D
:100DD2000E946911E9F40E94C1110E94EA11309740
:100DE20019F010E0E12FB9C0ECE5F2E00E94BD116C
:100DF200552466240E94CA1130F40E94E211B2DD29
:100E02000E949F10F7CFE8E6F2E00E94BD11A4C055
:100E1200E230A0E0FA07E9F40E94C1110E94EA114F
:100E2200309719F010E0E12F98C0E4E7F2E00E9459
:100E3200BD11552466240E94CA1130F40E94E211A9
:100E420091DD0E949F10F7CFE0E8F2E00E94BD1111
:100E520083C0E330A0E0FA07E9F40E94C1110E94C6
:100E6200EA11309719F010E0E12F77C0ECE8F2E0D8
:100E72000E94BD11552466240E94CA1130F40E94BA
:100E8200E21170DD0E949F10F7CFE8E9F2E00E94C4
:100E9200BD1162C0E430A0E0FA07E9F40E94C1117A
:100EA2000E94EA11309719F010E0E12F56C0E4EAEF
:100EB200F2E00E94BD11552466240E94CA1130F44A
:100EC2000E94E2114FDD0E949F10F7CFE0EBF2E0AB
:100ED2000E94BD1141C0E530A0E0FA07E9F40E948A
:100EE200C1110E94EA11309719F010E0E12F35C0CC
:100EF200ECEBF2E00E94BD11552466240E94CA1157
:100F020030F40E94E2112EDD0E949F10F7CFE8EC30
:100F1200F2E00E94BD1120C0E630A0E0FA07E1F441
:100F22000E94C1110E94EA11309719F010E0E12FDE
:100F320014C0E4EDF2E00E94BD11552466240E9423
:100F4200CA1130F40E94E2110DDD0E949F10F7CF0A
:100F5200E0EEF2E00E94BD11E12F18812296089581
:100F62000E94ED111A93E0E0E09368000199FECF30
:100F7200ACDC1E2F0E94FB11E3E3F2E00E94C611DB
:100F82000E94E51111F40C941308E6E0F0E09E0EC5
:100F9200AF1E772021F0E2E4EA93B3DA43C00E9465
:100FA200211179F40E942D1161F40E94391149F442
:100FB2000E94451131F40E94511119F40E945D11F1
:100FC20089F10E94FB11EAE3F2E00E94C611309718
:100FD20081F00E948110E073E03129F40E948110B7
:100FE200EF7CE06204C00E948110EF7CE0610E940D
:100FF200B61295DC0E9484110E948110E073E032E7
:1010020019F4EAEFF2E002C0E0E0F3E0FA93EA93C7
:1010120097DC1E2FE3E0F0E00E949D111A932BDC77
:101022000E94AE100E94FB11E1E4F2E00E94C611A0
:101032000E94E51111F40C94D208E7E0F0E09E0E54
:10104200AF1E772021F0E4E4EA935BDAAAC00E94A3
:101052008110E073E03211F00C94D2080E94C110AA
:1010620029F00E94A910E07CE03409F00CC00E9433
:10107200A9100E94D711E1E0EA930E9400120E9497
:10108200DD110E941F020E94CD1029F00E94A910BA
:10109200E073E03109F009C00E94A9100E94081211
:1010A200E2E00E9400120E9411120E94D91029F05F
:1010B2000E94A910EC70E43009F00DC00E94A91042
:1010C2000E941712E3E00E9420120E9481100E94E7
:1010D200DD110E941F020E94E51029F00E94A91052
:1010E200E370E13009F009C00E94A9100E942712A2
:1010F200E4E00E9400120E9430120E94F11029F0D6
:101102000E94A410E07CE03409F00FC00E94A410F9
:101112000E94D711E1E0EA93E5E00E9420120E94CA
:10112200A4100E94DD110E941F020E94FD1029F0EE
:101132000E94A410E073E03109F00BC00E94A410D9
:101142000E940812E6E00E9420120E94A4100E944F
:1011520011120E94091129F00E94A410EC70E430CF
:1011620009F00BC00E94A4100E941712E7E00E942F
:1011720020120E94A4100E9436120E94151129F01A
:101182000E94A410E370E13009F00BC00E94A41089
:101192000E942712E8E00E9420120E94A4100E94DE
:1011A2003012BDDB0E948411E4E3EA935CDBB7DB1F
:1011B2000E943C120E941F02D89AE5E0E093680068
:1011C20019910E943F1218950E94ED11E1E0E093FF
:1011D2006800E6B1EE3F11F00C94DE090E94AE10F9
:1011E200E6B1EE3F11F00C94DC09552466240E940E
:1011F2004D12C8F40E94AE10E6B1EF3F89F40E948E
:10120200A910E07C29F40E94A910EF73E06403C0E6
:101212000E94A910EF730E94B6120E941F0203C01F
:101222000E949F10E4CFE6B1EE3FC9F5E1E07E2EC9
:101232007894552466240E946E1138F4A3E0B0E03D
:101242000E9452120E949F10F6CF8824ECE38E1661
:1012520028F50E94A9100E94D7110E9458120E94DC
:10126200A9100E94DD110E945B12EFEFE71561F4F5
:101272000E94A9100E94D7110E945E120E94A9101A
:10128200EF730E94B6120AC0EFEDE71529F40E942F
:10129200A9100E94DD1102C08394D8CF7724E6B151
:1012A200EE37E9F5EBE07E2E7894552466240E9411
:1012B2006E1138F4ABE3B0E00E9452120E949F100C
:1012C200F6CF8824ECE38E1648F50E94A9100E94FE
:1012D20061120E9466120E94A9100E94DD110E94F2
:1012E20081100E9411120E945812EFEFE71561F46B
:1012F2000E94A9100E94D7110E945E120E94A9109A
:10130200EF730E94B6120AC0EFEDE71529F40E94AE
:10131200A9100E94DD1102C08394D4CF7724E6B1D4
:10132200EE3B11F00C94DC097894EDE0F3E00E94BE
:10133200BD110E946B120E94CB048824ECE38E162E
:10134200D0F50E94A9100E9461120E94D7110E943A
:1013520058120E94A9100E94DD110E9481100E9461
:10136200DD110E945B120E94C111E9E4F2E00E94C9
:10137200C6113097F1F00E946E120E9471120E9403
:101382005E12E1E00E94741229F40E948110EF7350
:10139200E06804C00E948110EF73E0640E94B612FC
:1013A2000E9479120E9481100E94DD110E94CB04DA
:1013B20002C08394C3CF0C94780FED3F11F00C94CC
:1013C200D50A0E94AE10E6B1ED3F11F00C94D30A9B
:1013D200552466240E944D12C8F40E94AE10E6B154
:1013E200EF3F89F40E94A910E07329F40E94A9102A
:1013F200EF7CE06103C00E94A910EF7C0E94B6124C
:101402000E941F0203C00E949F10E4CFE6B1ED3F8D
:10141200B9F5E2E07E2E7894552466240E946E117E
:1014220038F4AAE0B0E00E9452120E949F10F6CF58
:101432008824ECE38E1618F50E94A9100E94661209
:101442000E94A9100E9411120E945812EFEFE71594
:1014520061F40E94A9100E947C120E9479120E94DB
:10146200A910EF7C0E94B6120AC0EFEDE71529F42D
:101472000E94A9100E94811202C08394DACF7724BD
:10148200E6B1ED3711F00C94850AECE07E2E7894EB
:10149200552466240E946E1138F4A2E4B0E00E9442
:1014A20052120E949F10F6CF8824ECE38E1658F554
:1014B2000E94A9100E947C120E9481100E94661252
:1014C2000E94A9100E9481120E9481100E94111292
:1014D2000E945812EFEFE71561F40E94A9100E94D2
:1014E2007C120E9479120E94A910EF7C0E94B6120F
:1014F2000AC0EFEDE71529F40E94A9100E9481129B
:1015020002C08394D2CF7724E6B1ED3B11F00C9464
:10151200D30A7894E2E2F3E00E94BD110E946B12BA
:101522000E94CB048824ECE38E16E0F50E94A910F9
:101532000E947C120E9481100E94D7110E945812B0
:101542000E94A9100E9481120E9481100E94DD1146
:101552000E945B120E94C111EEE4F2E00E94C611E9
:101562003097F1F00E946E120E9471120E945E1278
:10157200E2E00E94741229F40E948110EF73E06885
:1015820004C00E948110EF73E0640E94B6120E94B0
:1015920079120E9481100E94DD110E94CB0402C0C8
:1015A2008394C1CF0C94780FEB3F11F00C94CD0BC8
:1015B2000E94AE10E6B1EB3F11F00C94CC0B552417
:1015C20066240E944D12C8F40E94AE10E6B1EF3FAD
:1015D20089F40E94A910EC7029F40E94A910E37FFB
:1015E200E46003C00E94A910E37F0E94B6120E9429
:1015F2001F0203C00E949F10E4CFE6B1EB3FC9F582
:10160200E3E07E2E7894552466240E946E1138F40D
:10161200A1E1B0E00E9452120E949F10F6CF8824EE
:10162200ECE38E1628F50E94A9100E9486120E94F1
:101632005B120E94A9100E9436120E945812EFEF0C
:10164200E71561F40E94A9100E9486120E94791285
:101652000E94A910E37F0E94B6120AC0EFEDE715BF
:1016620029F40E94A9100E94DD1102C08394D8CFF0
:101672007724E6B1EB3711F00C947E0BEDE07E2E71
:101682007894552466240E946E1138F4A9E4B0E0DF
:101692000E9452120E949F10F6CF8824ECE38E160D
:1016A20058F50E94A9100E9486120E9481100E9481
:1016B20066120E94A9100E948B120E9481100E9441
:1016C20011120E945812EFEFE71561F40E94A9105F
:1016D2000E9486120E9479120E94A910E37F0E9442
:1016E200B6120AC0EFEDE71529F40E94A9100E9474
:1016F2008B1202C08394D2CF7724E6B1EB3B11F078
:101702000C94CC0B7894EDE2F3E00E94BD110E94A0
:101712006B120E94CB048824ECE38E16E0F50E9443
:10172200A9100E9486120E9481100E94D7110E9465
:1017320058120E94A9100E948B120E9481100E94CE
:10174200DD110E945B120E94C111E3E5F2E00E94EA
:10175200C6113097F1F00E946E120E9471120E941F
:101762005E12E3E00E94741229F40E948110EF736A
:10177200E06804C00E948110EF73E0640E94B61218
:101782000E9479120E9481100E94DD110E94CB04F6
:1017920002C08394C1CFABC3E73F11F00C94C50CD8
:1017A2000E94AE10E6B1E73F11F00C94C40C552430
:1017B20066240E944D12C8F40E94AE10E6B1EF3FBB
:1017C20089F40E94A910E37029F40E94A910EC7F09
:1017D200E16003C00E94A910EC7F0E94B6120E9431
:1017E2001F0203C00E949F10E4CFE6B1E73FC9F594
:1017F200E4E07E2E7894552466240E946E1138F41B
:10180200A8E1B0E00E9452120E949F10F6CF8824F5
:10181200ECE38E1628F50E94A9100E9490120E94F5
:101822005B120E94A9100E9430120E945812EFEF20
:10183200E71561F40E94A9100E9490120E94791289
:101842000E94A910EC7F0E94B6120AC0EFEDE715C4
:1018520029F40E94A9100E94951202C08394D8CF45
:101862007724E6B1E73711F00C94760CEEE07E2E89
:101872007894552466240E946E1138F4A0E5B0E0F5
:101882000E9452120E949F10F6CF8824ECE38E161B
:1018920058F50E94A9100E9490120E9481100E9485
:1018A20066120E94A9100E9495120E9481100E9445
:1018B20011120E945812EFEFE71561F40E94A9106D
:1018C2000E9490120E9479120E94A910EC7F0E943D
:1018D200B6120AC0EFEDE71529F40E94A9100E9482
:1018E200951202C08394D2CF7724E6B1E73B11F080
:1018F2000C94C40C7894E8E3F3E00E94BD110E94BA
:101902006B120E94CB048824ECE38E16E0F50E9451
:10191200A9100E9490120E9481100E94D7110E9469
:1019220058120E94A9100E9495120E9481100E94D2
:10193200DD110E945B120E94C111E8E5F2E00E94F3
:10194200C6113097F1F00E946E120E9471120E942D
:101952005E12E4E00E94741229F40E948110EF7377
:10196200E06804C00E948110EF73E0640E94B61226
:101972000E9479120E9481100E94DD110E94CB0404
:1019820002C08394C1CFB3C2EF3E11F00C94B70DE5
:101992000E94AE10E6B1EF3E11F00C94B60D552444
:1019A20066240E944D12C8F40E94AE10E6B1EF3FC9
:1019B20089F40E94A410E07C29F40E94A410EF7321
:1019C200E06403C00E94A410EF730E94B6120E944A
:1019D2001F0203C00E949F10E4CFE6B1EF3EC9F59B
:1019E200E5E07E2E7894552466240E946E1138F428
:1019F200AFE1B0E00E9452120E949F10F6CF8824FD
:101A0200ECE38E1628F50E94A4100E94D7110E94C2
:101A120058120E94A4100E94DD110E945B12EFEF87
:101A2200E71561F40E94A4100E94D7110E945E1271
:101A32000E94A410EF730E94B6120AC0EFEDE715E0
:101A420029F40E94A4100E94DD1102C08394D8CF11
:101A52007724E6B1EF36E9F5EFE07E2E789455244F
:101A620066240E946E1138F4A7E5B0E00E9452127B
:101A72000E949F10F6CF8824ECE38E1648F50E9450
:101A8200A4100E9461120E9466120E94A4100E9479
:101A9200DD110E9481100E9411120E945812EFEF74
:101AA200E71561F40E94A4100E94D7110E945E12F1
:101AB2000E94A410EF730E94B6120AC0EFEDE71560
:101AC20029F40E94A4100E94DD1102C08394D4CF95
:101AD2007724E6B1EF3A11F00C94B60D7894E3E472
:101AE200F3E00E94BD110E946B120E94CB04882475
:101AF200ECE38E16D0F50E94A4100E9461120E949F
:101B0200D7110E9458120E94A4100E94DD110E9457
:101B120081100E94DD110E945B120E94C111EDE54D
:101B2200F2E00E94C6113097F1F00E946E120E94FC
:101B320071120E945E12E5E00E94741229F40E9462
:101B42008110EF73E06804C00E948110EF73E064BB
:101B52000E94B6120E9479120E9481100E94DD1129
:101B62000E94CB0402C08394C3CFC1C1EF3D11F0E8
:101B72000C94AD0E0E94AE10E6B1EF3D11F00C9444
:101B8200AC0E552466240E944D12C8F40E94AE1079
:101B9200E6B1EF3F89F40E94A410E07329F40E9499
:101BA200A410EF7CE06103C00E94A410EF7C0E94AD
:101BB200B6120E941F0203C00E949F10E4CFE6B13A
:101BC200EF3DB9F5E6E07E2E7894552466240E9416
:101BD2006E1138F4A6E2B0E00E9452120E949F10E9
:101BE200F6CF8824ECE38E1618F50E94A4100E940A
:101BF20066120E94A4100E9411120E945812EFEF66
:101C0200E71561F40E94A4100E947C120E947912CE
:101C12000E94A410EF7C0E94B6120AC0EFEDE715F5
:101C220029F40E94A4100E94811202C08394DACF88
:101C32007724E6B1EF3511F00C945E0EE0E17E2ED2
:101C42007894552466240E946E1138F4AEE5B0E013
:101C52000E9452120E949F10F6CF8824ECE38E1647
:101C620058F50E94A4100E947C120E9481100E94CA
:101C720066120E94A4100E9481120E9481100E948A
:101C820011120E945812EFEFE71561F40E94A4109E
:101C92000E947C120E9479120E94A410EF7C0E9482
:101CA200B6120AC0EFEDE71529F40E94A4100E94B3
:101CB200811202C08394D2CF7724E6B1EF3911F0BA
:101CC2000C94AC0E7894EEE4F3E00E94BD110E94F5
:101CD2006B120E94CB048824ECE38E16E0F50E947E
:101CE200A4100E947C120E9481100E94D7110E94AF
:101CF20058120E94A4100E9481120E9481100E9418
:101D0200DD110E945B120E94C111E2E6F2E00E9424
:101D1200C6113097F1F00E946E120E9471120E9459
:101D22005E12E6E00E94741229F40E948110EF73A1
:101D3200E06804C00E948110EF73E0640E94B61252
:101D42000E9479120E9481100E94DD110E94CB0430
:101D520002C08394C1CFCBC0EF3B11F00C94130FA0
:101D62000E94AE10E6B1EF3B11F00C94120F552415
:101D720066240E944D12C8F40E94AE10E6B1EF3FF5
:101D820089F40E94A410EC7029F40E94A410E37F4D
:101D9200E46003C00E94A410E37F0E94B6120E9476
:101DA2001F0203C00E949F10E4CFE6B1EF3BC9F5CA
:101DB200E7E07E2E7894552466240E946E1138F452
:101DC200ADE2B0E00E9452120E949F10F6CF88242A
:101DD200ECE38E1628F50E94A4100E9486120E943F
:101DE2005B120E94A4100E9436120E945812EFEF5A
:101DF200E71561F40E94A4100E9486120E947912D3
:101E02000E94A410E37F0E94B6120AC0EFEDE7150C
:101E120029F40E94A4100E948B1202C08394D8CF8E
:101E2200772465C0EF3711F00C94780F0E94AE1042
:101E3200E6B1EF3711F00C94780F552466240E9416
:101E42004D12C8F40E94AE10E6B1EF3F89F40E9431
:101E5200A410E37029F40E94A410EC7FE16003C097
:101E62000E94A410EC7F0E94B6120E941F0203C0BF
:101E72000E949F10E4CFE6B1EF37C9F5E8E07E2E6D
:101E82007894552466240E946E1138F4A4E3B0E0DD
:101E92000E9452120E949F10F6CF8824ECE38E1605
:101EA20028F50E94A4100E9490120E945B120E94C8
:101EB200A4100E9430120E945812EFEFE71561F44D
:101EC2000E94A4100E9490120E9479120E94A410F3
:101ED200EC7F0E94B6120AC0EFEDE71529F40E94CA
:101EE200A4100E94951202C08394D8CF77240E9436
:101EF200CB040E946E12E6B1EF3FE9F7E5E0E09312
:101F02006800DA9A0E943F121895EA93FA93EFB7A3
:101F1200EA931A930A931091C0000091C600E12F30
:101F2200EC7149F4E32DF42D31963E2E4F2E31976C
:101F3200E959FD4F008309911991E991EFBFF99198
:101F4200E9911895E0E8E0936100E0E0E093610038
:101F5200E0E2E2B9ECE3E1B9E5E1E5B9EDEBE4B9E0
:101F6200EFEFE8B9E0E0E7B9EBB9EAE7EAB9E0E0B8
:101F7200E4BDE5BDE6BDE7BDE8BDE0938000E093CA
:101F82008100E0938500E0938400E0938700E09372
:101F92008600E0938900E0938800E0938B00E09351
:101FA2008A00E093B600E093B000E093B100E093C2
:101FB200B200E093B300E093B400E0936900EDBB9C
:101FC200E3E0E0936B00EFEFE0936D00E5E0E09378
:101FD2006800EBBBE0E0E0936E00E0936F00E093FB
:101FE2007000E093C000E8E9E093C100E6E0E0930E
:101FF200C200E0E0E093C500E3E0E093C400E0E06B
:10200200E093C900E0E8E0BFE0E0E0937B00E0930A
:102012007F00E0937A00E0E5ECBDE0E0EDBDE09307
:10202200BC00F89455246624E0E0F1E05E166F06E9
:1020320050F4A6E6B0E0A50DB61DEFEF0E94B61271
:102042000E949F10F1CFA0E0B0E0E0E00E94B61243
:10205200A1E0B0E00E94B612A2E0B0E00E94B61287
:102062000E941F020E94B7110E94F003EAE0F0E012
:102072000E949D110E9412040E942A040E9484114F
:10208200E4E3EA930E943404E3E0F0E00E949D114D
:102092000E9481100E941112D89A78940E943C12D8
:1020A2000E9401050E943C120E9481100E94DD11D3
:1020B2000E941F020E941F02FDCFFFCF6991A991CA
:1020C200B991EE27FF277C91671709F4FD0111965C
:1020D2007723C9F70895AA81BB81CD01E881F981EF
:1020E2007191772311F4FC0109C06D916717C1F357
:1020F2000196DC01662391F7EE27FF2724960895C7
:10210200A2E0B0E00E94AA120895E8E0F0E05E16B4
:102112006F060895E881F0E0F595E795E883E1E040
:10212200F0E0FA93EA930E949A12139AE1E0F0E047
:10213200FA93EA930E949A1213980895E1E0F0E06C
:102142005E0E6F1E0895A1E0B0E00E94AA120895EB
:10215200A0E0B0E00E94AA120895E1E0F0E0FA9354
:10216200EA930C949A12A52DB62DF0E0AE17BF0794
:102172000895E52DF62D31965E2E6F2E3197089536
:10218200AA929A92E3E0F0E0FA93EA93E6E0EA9305
:102192000E946102E0300895AA929A92EAE0F0E089
:1021A200FA93EA93E6E0EA930E946102E03008952E
:1021B200AA929A92E1E1F0E0FA93EA93E6E0EA93D6
:1021C2000E946102E0300895AA929A92E8E1F0E05A
:1021D200FA93EA93E6E0EA930E946102E0300895FE
:1021E200AA929A92EFE1F0E0FA93EA93E6E0EA9398
:1021F2000E946102E0300895AA929A92E6E2F0E02B
:10220200FA93EA93E6E0EA930E946102E0300895CD
:10221200AA929A92EDE2F0E0FA93EA93E6E0EA9368
:102222000E946102E0300895AA929A92E4E3F0E0FB
:10223200FA93EA93E6E0EA930E946102E03008959D
:10224200AA929A92EBE3F0E0FA93EA93E6E0EA9339
:102252000E946102E0300895AA929A92E2E4F0E0CC
:10226200FA93EA93E6E0EA930E946102E03008956D
:10227200AA929A92E9E4F0E0FA93EA93E6E0EA930A
:102282000E946102E0300895AA929A92E0E5F0E09D
:10229200FA93EA93E6E0EA930E946102E03008953D
:1022A200AA929A92E7E5F0E0FA93EA93E6E0EA93DB
:1022B2000E946102E0300895AA929A92EEE5F0E05F
:1022C200FA93EA93E6E0EA930E946102E03008950D
:1022D200F0E0E130A0E0FA070895E6E0F0E05E16F3
:1022E2006F060895E92DFA2D31969E2EAF2E319765
:1022F200E0810E94B6120895EA930E94E903E88100
:10230200EA930C94E903E6E3EA930E943404EAE3D5
:10231200EA930E943404EBE3EA930C943404A50D8F
:10232200B61DEC91EA930895E881F9813196E8832C
:10233200F9833197E4910895FA93EA930C949A12EF
:102342000E94C712E7E6F2E0FA93EA93FE0136969C
:10235200FA93EA930E946C109F010895D9011C918F
:102362000E94CB04E12F0E94CC120895E8EEF3E024
:10237200E3CFE4E6F0E0E0CFFA93EA930C94BC04F6
:10238200E7E6F2E0FA93EA930895FA93EA930C945B
:102392006C10ECE0F0E05E166F060895E959FB4F11
:1023A2000F01D901EC91D001EC930895EF73E0682D
:1023B2000E94B6120C941F02EF73E0640E94B612E0
:1023C2000895A7E6B4E0ABCF9E2EAF2E092C0A28C3
:1023D2000895E7E6F4E0D9CF0A921A92FA926A9344
:1023E2007A938A939A93AA93BA93EA93FA93EFB75A
:1023F200EA930895E3E7F4E0FA93EA930895EA93FF
:102402000E94E705E1E0EA930E945805A1CEEF7C25
:10241200E0620E94B6120E941F02E1E0EA93089570
:10242200EF7CE0610E94B6120C941F02E37FE86029
:102432000E94B6120E941F02E1E0EA930895EA9315
:102442000E94E705E1E0EA930C945805EC7FE26014
:102452000E94B6120E941F02E1E0EA930895EC7F07
:10246200E1600E94B6120C941F02E37FE4600E94B6
:10247200B6120C941F02E4EFF1E05ECFE991EFBFD8
:10248200F991E991B991A99199918991799169917A
:10249200F990199009900895E8EBFBE05E166F063B
:1024A2000895A50DB61DE6E40E94B6120895EAEF5E
:1024B200F0E042CF0E941F02FACFE0EDF7E03CCFFE
:1024C200EF73E0680E94B6121BCEEF7CE0620E94BE
:1024D200B612F0CFEEE1F0E02FCFECE2F1E02CCF3C
:1024E200EDE1F3E049CFEA930E949C06E0300895C3
:1024F2000E941F02E2CFEF7CE0620E94B6120895B2
:10250200EF7CE0610E94B6120895E37FE8600E94CA
:10251200B6120895E37FE4600E94B6120895EC7F3C
:10252200E2600E94B6120895EC7FE1600E94B6124A
:102532000895E991F991309639F083E397E0019794
:10254200F1F7A8953197C9F708950590F491E02D18
:102552000895F999FECFFF93FFB7F894A1BDB2BDDC
:10256200F89AE0B5FFBFFF910895F99B02C0A895C4
:10257200FCCF9FB7F894A1BDB2BDF89A80B5E81719
:1025820019F0E0BDFA9AF99A9FBF08953A932A93F7
:102592001A930A9308953B812A811981088108952B
:00000001FF
