:0600000065C0FECF77C1D0
:10000600D7C1FBCFFACFF9CFF8CFF7CF6DC1F5CF78
:10001600F4CFF3CFF2CFF1CFF0CFEFCF0E00060241
:10002600FF060407050801092F0A060B000C100D30
:10003600090E7B0F8510781103120213E5141415AF
:100046003017181816196C1AC01B001CB21DB621E1
:100056001022E9232A2400251F265929812C352D13
:10006600092E53454355520049444C4500434C45DF
:1000760041525F4F4B004441544348494B3132385B
:10008600313238004252454C4F4B312D5245414496
:10009600004252454C4F4B312D4348414E47450097
:1000A60001002D4E414E00494E4600000600A000BC
:1000B60068000500A6006E000900AB007300010091
:1000C600F400A6000000F894EE27ECBBE5BFF8E1CB
:1000D600A895A4B7A77FA4BFF1BDE1BD8DE0A2E0BE
:1000E600BB27ED938A95E9F780E091E0A0E6ED93D2
:1000F6000197E9F7E2EBF0E085919591009761F0C1
:10010600A591B59105901590BF01F00105900D924E
:100116000197E1F7FB01F0CFE0E0E3BBE4BBE5BB11
:10012600EFE5EDBFE1E0EEBFC0EAD0E0C3C1E88194
:10013600EFB9E0E4EEB9E8B7E260E8BFE9B7E2603C
:10014600E9BF769BFECFE0E0E9BFEFB17FC0E0E01C
:10015600EDB9DC9ADD98DB9883E08A95F1F7DB9AB6
:100166008BE68A95F1F7EAE1EDB9DB98CE99FECFF9
:10017600E0E3EA93DCDF2BC02297DB98CE99FECF33
:10018600EA81FB81E883F983E981EA93D0DFE8819C
:10019600EA93CDDFDB9AFAC13324E3E23E1670F42C
:1001A600E32DA2E2B0E0F0E0EE0FFF1FEA0FFB1F27
:1001B600FBD1FA93EA93E0DF3394EFCF0895DB980F
:1001C600CE99FECFE0ECFEE3FA93EA93D5DFDB9A15
:1001D6000895DB98CE99FECFE881EA93A8DFDB9AF3
:1001E60035C0E6E3EA93F5DFEAE3EA93F2DFEBE311
:1001F600EA93EFDFE1E0F0E0FA93EA93C9D1DB9806
:10020600CE99FECFEFE7EA9392DFE881EA938FDF9C
:100216003324E8813E1648F4E32DF0E0EC54FF4F1A
:10022600E081EA9384DF3394F4CFDB9AE5E3EA9343
:10023600D0DFC89BFECFC899FECFE6E3EA93C9DFBD
:10024600EAE3EA93C6DFEBE3EA93C3DF2196089578
:100256001A93E6E3EA93BDDFC298DB98CE99FECF08
:10026600EFEFEA9364DFE0E0EA9361DF1E2F3324C9
:10027600311670F4E32DF0E0EC54FF4FFF93EF934B
:10028600E0E0EA9354DFAF91BF91EC933394F0CF63
:10029600DB9AEAE3EA939DDFE12F1991089533246F
:1002A600E0E43E1640F4E32DF0E0EC54FF4FA0E00E
:1002B600A0833394F5CF08953324E881F981E4913E
:1002C600E03079F0E32D3394F0E0EC54FF4FDF019A
:1002D600E881F9813196E883F9833197E491EC93CB
:1002E600ECCFE32D229608957894689A18950A9291
:1002F6001A92FA926A937A938A939A93AA93BA93E2
:10030600EA93FA93EFB7EA93E0E0EBBF7894C899E3
:10031600FECF9EDF2E2EE4EBF0E0FA93EA93E0EABE
:10032600F0E0FA93EA931FD1309711F0DA9ADF984A
:10033600E4EBF0E0FA93EA93E6EAF0E0FA93EA9364
:1003460012D1309711F0DA98DF9AE4EBF0E0FA93E5
:10035600EA93EBEAF0E0FA93EA9305D13097A1F03D
:100366003324E5E03E1680F4DA98DF9AE8ECF0E014
:10037600FA93EA930DD1DA9ADF98E8ECF0E0FA9373
:10038600EA9306D13394EDCF8ADFE4EFF1E0FA93F6
:10039600EA93FED0E991EFBFF991E991B991A9915C
:1003A6009991899179916991F99019900990189587
:1003B6000A921A92FA926A937A938A939A93AA93D2
:1003C600BA93EA93FA93EFB7EA93E0E0EBBF789437
:1003D600BEDEEAE0F0E0FA93EA93DAD0DDDEEFDEA5
:1003E600ECE2F1E0FA93EA93D3D0A0E0B099A1E071
:1003F600A03029F4A0E0B199A1E0A03009F01AC01C
:10040600DA9ADF9AE8EEF3E0FA93EA93C1D0A0E035
:10041600B099A1E0A03029F4A0E0B199A1E0A03004
:1004260009F007C0ECE7F0E0FA93EA9345DFEA93B8
:10043600D8DE12C0B09907C0EAE8F0E0FA93EA9372
:100446003BDFEA93CEDEB19907C0E7E9F0E0FA9325
:10045600EA9332DFEA93C5DE22DFEAB7E061EABF5C
:10046600E0E1EBBFE4E3EA93B4DEE8EEF3E0FA930F
:10047600EA938ED0A0E0B099A1E0A03029F0A0E0E8
:10048600B199A1E0A03009F4F5CFEAB7E063EABF7D
:10049600E0E2EBBFDA98DF98E991EFBFF991E991D5
:1004A600B991A9919991899179916991F990199048
:1004B60009901895E0E8E6BDE0E0E6BDE8E0EBBBB4
:1004C600ECEBEABBE3E0E8BBE0E0E7BBE0BFE1E082
:1004D600E3BFE0E0E2BFEFE1E6BFE0E0ECBFEFBD87
:1004E600EEBDEDBDECBDE5BDE4BDEBBDEABDE9BDD0
:1004F600E8BDE5BFE1E0E2BBE3E0E0BDE0E2EBBF83
:10050600E0E3EABFE2E0E9BFE0E0ECB9EAE1EDB939
:10051600E0E8E8B9E0E0E3B9E1B9E6B97894DA9A57
:10052600DF98E8EEF3E0FA93EA9332D010DEEAE0E1
:10053600F0E0FA93EA932CD02FDE41DEDA98DF98CA
:10054600E9E3EA9346DEEAE0F0E0FA93EA9320D0A4
:10055600E5B7E063E5BF8895E4EFF1E0FA93EA9347
:1005660017D0ECCFFFCFAA81BB81CD01E881F981FD
:100576007191772311F4FC0109C06D916717C1F3DE
:100586000196DC01662391F7EE27FF27249608954E
:10059600E991F991309639F080ED97E00197F1F7FE
:1005A600A8953197C9F708950590F491E02D08951F
:00000001FF
