:080000003DC0FECFFDCFFCCF97
:10000800FBCFFACFF9CFF8CFF7CFBFC0F5CFF4CFFA
:10001800F3CFF2CFF1CFF0CFEFCF0E000602FF06FD
:100028000407050801092F0A060B000C100D280EFD
:100038001E0F8510781173120213E914001530177A
:10004800181816196C1AC71B001CB21DB6211022ED
:10005800E9232A2400251F265929812C352D092E0C
:1000680001002D4E414E00494E4600000100A000FF
:1000780068000000F894EE27ECBBE5BFF8E1A8950E
:10008800A4B7A77FA4BFF1BDE1BD8DE0A2E0BB2767
:10009800ED938A95E9F780E091E0A0E6ED9301976A
:1000A800E9F7E4E7F0E085919591009761F0A59173
:1000B800B59105901590BF01F00105900D9201973B
:1000C800E1F7FB01F0CFE0E0E3BBE4BBE5BBEFE524
:1000D800EDBFE1E0EEBFC0EAD0E059C0E881EFB97A
:1000E800E0E4EEB9E8B7E260E8BFE9B7E260E9BF8B
:1000F800769BFECFE0E0E9BFEFB145C0E0E0EDB9A7
:10010800DC9ADD98DB9883E08A95F1F7DB9A8BE639
:100118008A95F1F7EAE1EDB9DB98CE99FECFE0E3F5
:100128009ED029C02297DB98CE99FECFEA81FB8129
:10013800E883F983E98193D0E88191D0DB9A24960A
:1001480008953324E3E23E1670F4E32DA2E2B0E012
:10015800F0E0EE0FFF1FEA0FFB1F96D0FA93EA9329
:10016800E1DF3394EFCF0895DB98CE99FECFE0EC32
:10017800FEE377D0D7DFDB9A0895DB98CE99FECFE0
:10018800E8816DD0DB9A21960895689A1895E0E881
:10019800E6BDE0E0E6BDE8E0EBBBECEBEABBE3E0A4
:1001A800E8BBE0E0E7BBE0BFE1E0E3BFE0E0E2BFDF
:1001B800EFE1E6BFE0E0ECBFEFBDEEBDEDBDECBDAD
:1001C800E5BDE4BDEBBDEABDE9BDE8BDE5BFEBBFFC
:1001D800E2E0E9BFE0E0ECB9EAE1EDB9E0E8E8B96E
:1001E800E0E0E3B9E1B9E6B97894DA9ADF98E8EEA5
:1001F800F3E03AD083DFEAE0F0E036D0A2DFB4DF04
:10020800DA98DF98E6E332D0EAE330D0EBE32ED099
:10021800E1E0F0E029D0DB98CE99FECFEFE71FD0E0
:10022800EAE01DD0E3E51BD0E5E419D0E8E517D0F6
:10023800EFE415D0EEE413D0E9E411D0E8E50FD0EF
:10024800DB9AE5E313D0C89BFECFC899FECFDA9AB4
:10025800DF98E4EFF1E008D0D3CFFFCFFFCFEA93E8
:100268003DCFFA93EA930895FCDF02C0EA9385CF65
:10027800E991F991309639F080ED97E00197F1F71F
:10028800A8953197C9F708950590F491E02D089540
:00000001FF
