:0A00000028C0FECF59C0FCCFFBCF93
:10000A00FACFF9CF55C0F7CFF6CFF5CFF4CFF3CF6C
:10001A00F2CFF1CFF0CFEFCFEECFEDCF2C31343599
:10002A00000041542B434D47533D0000444F4F526B
:10003A00204F50454E001027E80364000A000100D3
:10004A000010000110000100F894EE27ECBBE5BF98
:10005A00F8E1A4B7A77FA4BFF1BDE1BD8DE0A2E09E
:10006A00ED938A95E9F780E8A0E6ED938A95E9F79A
:10007A00E0E0E3BBE4BBE5BBEFEDEDBFC0E834C0B5
:10008A005D9BFECFE881ECB9219608951A9366200C
:10009A00F1F3E72D7394E0581081E8E4E71509F4C9
:1000AA007724F8946A947894E12F19910895189511
:1000BA00EA93EFB7EA93FED01BB10CB1E12FEC71D2
:1000CA0071F4E42D4394E0580083E8E4E41509F45C
:1000DA0044246394E8E4E61511F46624989AEDD072
:1000EA00E991EFBFE9911895E0E8E6BDE0E0E6BDE9
:1000FA00EBBBEABBE1E0E8BBE9E1E7BBECE0E2BB72
:10010A00E0E5E1BBE0E0E0BFE3BFE2BFE6BFECBF92
:10011A00EFBDEEBDEDBDECBDE5BDE4BDEBBDEABD99
:10012A00E9BDE8BDE0E8EBBFE0E0E5BFE0E8EABF33
:10013A00E0E0E9BFEDB9EBB9E8E9EAB9E6E0E3B92D
:10014A00E0E0E2B9E7E1E9B9E0E8E8B9E0E0E1B91D
:10015A007894C398C49AC0989698E8EEF3E06DD064
:10016A00C09AC498E8E2F3E268D07894E1E668D0ED
:10017A00E4E766D0EDE064D0F9CFE8E43E1618F47F
:10018A0061D03394FACFC39AFFCFEFE4E51519F0A3
:10019A00EFE6E51509F403C079DF5E2EF6CFEBE44E
:1001AA00E51519F0EBE6E51509F403C06FDF5E2EDD
:1001BA00F6CF53D03324E8E43E1618F443D03394F0
:1001CA00FACFC39AFFCFE8E03E1638F449D0E45D8F
:1001DA00FF4FE49135D03394F6CFE2E231D03324A5
:1001EA00ECE03E1640F4A32DB0E0A050B04047D05A
:1001FA0027D03394F5CFE2E223D03324E4E03E164D
:10020A0038F42ED0EA5DFF4FE4911AD03394F6CF3A
:10021A00EDE016D022D03324E9E03E1638F420D09F
:10022A00EA5CFF4FE4910CD03394F6CFE0EAFFE0AA
:10023A0004D0EAE105D0FFCFFFCFFA93EA9313C0C7
:10024A00EA931ECFE32DF0E0E45FFF4F0F01A0E831
:10025A00A30DEC91D0011ED00895E8ECF0E0EDCFAB
:10026A00E32DF0E00895E991F991309639F08AE9A1
:10027A0093E00197F1F7A8953197C9F70895E199A5
:10028A00FECFFF93FFB7F894AEBBE09AEDB3FFBF82
:10029A00FF910895E19B02C0A895FCCF9FB7F894FF
:1002AA00AEBBE09A8DB3E81719F0EDBBE29AE19A7A
:1002BA009FBF08951A930A93089509911991089571
:00000001FF
