:0400000032C0FECF3D
:1000040056C0FCCFFBCFFACFF9CFF8CFF7CFF6CF5E
:10001400F5CFF4CFF3CFF2CFF1CFF0CFEFCFEECFD8
:10002400EDCF61742B636D67663D310061742B63A2
:100034006D67733D2B3739313339323433393939BC
:100044002C3134350000646F6F72206F70656E0060
:100054001027E80364000A000100001000011000EA
:100064000100F894EE27ECBBE5BFF8E1A4B7A77F45
:10007400A4BFF1BDE1BD8DE0A2E0ED938A95E9F75F
:1000840080E8A0E6ED938A95E9F7E0E0E3BBE4BB02
:10009400E5BBEFEDEDBFC0E89AC05D9BFECFE88104
:1000A400ECB9219608955F9BFECFECB108950A92B6
:1000B4001A92FA926A937A938A939A93AA93BA9326
:1000C400EA93FA93EFB7EA93C398C49AC0989698C0
:1000D400B6D0C09A94988599FECFC498B0D0E1E682
:1000E400B3D0E4E7B1D0EDE0AFD0B0D0EDE0E215AD
:1000F400B1F7ACD0EAE0E21591F7A8D0EFE4E2154D
:1001040019F0EFE6E21509F401C0E9CF9FD0EBE462
:10011400E21519F0EBE6E21509F401C0E0CFC39A49
:10012400E8ECF0E0FA93EA9397D03324EBE03E1640
:1001340038F48FD0EA5DFF4FE49186D03394F6CF44
:10014400EDE082D083D0EDE0E21579F77FD0EAE0EC
:10015400E21559F77BD0EFE4E21519F0EFE6E2156A
:1001640009F401C0E2CF72D0EBE4E21519F0EBE63A
:10017400E21509F401C0D9CFC398C49A3324E8E145
:100184003E1638F466D0E05DFF4FE4915DD03394C1
:10019400F6CFEDE059D03324EBE03E1638F459D0D5
:1001A400E65BFF4FE49150D03394F6CFEAE14CD0B4
:1001B400C498E991EFBFF991E991B991A991999105
:1001C400899179916991F990199009901895E0E8CD
:1001D400E6BDE0E0E6BDEBBBEABBE1E0E8BBE9E19C
:1001E400E7BBECE0E2BBE0E5E1BBE0E0E0BFE3BF9E
:1001F400E2BFE6BFECBFEFBDEEBDEDBDECBDE5BDBE
:10020400E4BDEBBDEABDE9BDE8BDE0E8EBBFE0E07D
:10021400E5BFE0E8EABFE0E0E9BFEDB9EBB9E8E14A
:10022400EAB9E6E0E3B9E0E0E2B9E7E1E9B9E0E838
:10023400E8B9E0E0E1B97894C39AFFCFFFCFE0EDED
:10024400F7E0FA93EA9308C0EA9327CF2CDF2E2E27
:100254000895E32DF0E00895E991F991309639F08D
:100264008AE993E00197F1F7A8953197C9F70895C2
:00000001FF
