:020000040800F2
:100000009807002071440008E93D0008EB3D000816
:10001000FB3D0008FD3D0008FF3D0008000000001A
:10002000000000000000000000000000013E000889
:10003000033E000800000000053E0008073E0008DF
:10004000E1440008E5440008E9440008ED440008E4
:10005000F1440008F5440008F9440008FD44000894
:100060000145000805450008094500080D45000840
:10007000114500080F3F0008194500081D450008FC
:1000800021450008254500082B3E00082D450008A5
:100090003145000835450008394500082B3F000868
:1000A0004145000845450008494500084D45000800
:1000B0005145000855450008594500085D450008B0
:1000C0006145000865450008694500086D45000860
:1000D0007145000875450008794500087D45000810
:1000E0000940000885450008894500088D4500083D
:1000F0009145000895450008994500089D45000870
:10010000A1450008A5450008A9450008AD4500081F
:10011000B1450008B5450008B9450008BD450008CF
:10012000C1450008C5450008C9450008CD4500087F
:1001300040B2002809D540B210F00F00DFF8F42CCF
:100140008018090100F8041C04E040B2DFF8482ED2
:1001500009018154704780B5B0F1807F01D301203F
:1001600013E00002000A401EDFF8CC1C08600F21DB
:100170005FF0FF30FFF7DCFFDFF8C00C002101600B
:10018000DFF8980E07210160002002BD80B500F065
:10019000ABFF01F041F800F05FF800F08FF800F0DD
:1001A000D9F800F0D8FB00F093F800F03FFC00F025
:1001B000EFFC00F083FD00F00CFD00F056FDDFF8D1
:1001C000A00D00684000DFF89C1DB0FBF1F0FFF7C8
:1001D000C2FF00215FF0FF30FFF7AAFF8021DFF8A8
:1001E000400E01F086FA01F0C1FA012001F042FB55
:1001F0004FF4FA7000F008FE002001F03BFB802174
:10020000DFF81C0E01F078FA4FF4FA7000F0FCFDF4
:100210008021DFF80C0E01F06CFA4FF4FA7000F058
:10022000F3FD01F0BBFA0121DFF8700D00F008FECC
:1002300000F0FAFEDFF8EC0D0088401CDFF8E41D4A
:100240000880DFF8E00D0088B0F5167FD7DDDFF815
:10025000D40D00210180D2E780B501213C2001F0BE
:10026000D2FC0121012001F0CEFC4FF4804001F0CE
:100270003BFC01214FF4C06001F0C5FC01210220CC
:1002800001F0D1FC01214FF4804001F0BCFC0121C0
:100290005FF4C02001F0C7FC01214FF4805001F051
:1002A000B2FC0121012001F09EFC01215FF0C05051
:1002B00001F0B9FC002001F021FC01BD80B5012056
:1002C00001F0DCFC01F0E0FC002001F0E5FC01BDE8
:1002D00080B54FF4C06001F0E5FC12208DF80000FD
:1002E00001208DF8010001208DF8020001208DF819
:1002F000030000A801F0DBFC0D208DF800000120B8
:100300008DF8010000208DF8020001208DF8030017
:1003100000A801F0CCFC17208DF8000001208DF81A
:10032000010002208DF8020001208DF8030000A8D2
:1003300001F0BDFC28208DF8000001208DF801009F
:1003400003208DF8020001208DF8030000A801F0C1
:10035000AEFC01BD80B500A801F0B8F90120ADF8F0
:10036000000000208DF8030000A9DFF80C0D01F05B
:1003700049F900A801F0AAF90220ADF80000002018
:100380008DF8030000A9DFF8F00C01F03BF900A89C
:1003900001F09CF90420ADF8000002208DF8020065
:1003A00018208DF8030000A9DFF8CC0C01F02AF921
:1003B00000A801F08BF90820ADF8000004208DF8AA
:1003C000030000A9DFF8B00C01F01CF900A801F04F
:1003D0007DF91020ADF8000002208DF802001020F9
:1003E0008DF8030000A9DFF8900C01F00BF900A8CC
:1003F00001F06CF92020ADF8000002208DF8020019
:1004000018208DF8030000A9DFF86C0C01F0FAF851
:1004100000A801F05BF94020ADF8000004208DF841
:10042000030000A9DFF8500C01F0ECF800A801F07F
:100430004DF98020ADF8000002208DF80200182050
:100440008DF8030000A9DFF8300C01F0DBF800A8FC
:1004500001F03CF94FF48070ADF8000002208DF8F7
:10046000020010208DF8030000A9DFF80C0C01F049
:10047000C9F800A801F02AF94FF40070ADF80000A7
:1004800001208DF8020018208DF8030000A9DFF884
:10049000E80B01F0B7F800A801F018F94FF48060FC
:1004A000ADF8000004208DF8030000A9DFF8C80BA8
:1004B00001F0A8F800A801F009F94FF40060ADF8C8
:1004C000000028208DF8030000A9DFF8AC0B01F034
:1004D00099F800A801F0FAF84FF48050ADF8000048
:1004E00028208DF8030000A9DFF88C0B01F08AF8B2
:1004F00041F60F71DFF8800B01F001F900A801F05F
:10050000E5F80120ADF8000000208DF8030000A9F7
:10051000DFF8680B01F076F800A801F0D7F80220A8
:10052000ADF8000000208DF8030000A9DFF84C0BA7
:1005300001F068F800A801F0C9F80420ADF8000047
:1005400028208DF8030000A9DFF8300B01F05AF8DD
:1005500000A801F0BBF82020ADF8000002208DF8C3
:10056000020010208DF8030000A9DFF8100B01F045
:1005700049F800A801F0AAF84020ADF800002820B2
:100580008DF8030000A9DFF8F40A01F03BF800A899
:1005900001F09CF88020ADF8000002208DF80200E8
:1005A00010208DF8030000A9DFF8D00A01F02AF826
:1005B00000A801F08BF84FF48070ADF80000022025
:1005C0008DF8020010208DF8030000A9DFF8AC0AB6
:1005D00001F018F800A801F079F84FF40070ADF8B8
:1005E000000002208DF8020010208DF8030000A901
:1005F000DFF8880A01F006F800A801F067F84FF468
:100600008060ADF8000002208DF8020018208DF8FF
:10061000030000A9DFF8640A00F0F4FF00A801F06D
:1006200055F84FF40060ADF8000004208DF8030089
:1006300000A9DFF8480A00F0E5FF00A801F046F83D
:100640004FF48050ADF8000002208DF80200102019
:100650008DF8030000A9DFF8240A00F0D3FF00A8FA
:1006600001F034F84FF40050ADF8000002208DF88E
:10067000020010208DF8030000A9DFF8000A00F046
:10068000C1FF00A801F022F84FF48040ADF800004F
:1006900028208DF8030000A9DFF8E00900F0B2FF80
:1006A00000A801F013F84FF40040ADF80000282036
:1006B0008DF8030000A9DFF8C40900F0A3FF4FF68E
:1006C000E771DFF8B80901F01AF800A800F0FEFFA2
:1006D0000120ADF8000002208DF8020010208DF8F6
:1006E000030000A9DFF8380900F08CFF0121DFF8D2
:1006F000300900F0FEFF00A800F0E8FF0220ADF88E
:10070000000002208DF8020010208DF8030000A9DF
:10071000DFF80C0900F076FF0221DFF8040900F091
:10072000E8FF00A800F0D2FF0420ADF80000282068
:100730008DF8030000A9DFF8E80800F063FF00A8C7
:1007400000F0C4FF0820ADF8000028208DF8030059
:1007500000A9DFF8CC0800F055FF00A800F0B6FFB4
:100760001020ADF8000002208DF8020010208DF856
:10077000030000A9DFF8A80800F044FF00A800F07B
:10078000A5FF2020ADF8000002208DF80200102007
:100790008DF8030000A9DFF8880800F033FF00A8F7
:1007A00000F094FF4020ADF8000002208DF8020018
:1007B00010208DF8030000A9DFF8640800F022FF84
:1007C00000A800F083FF8020ADF8000002208DF823
:1007D000020010208DF8030000A9DFF8440800F0A3
:1007E00011FF00A800F072FF4FF48070ADF8000018
:1007F00028208DF8030000A9DFF8240800F002FF8C
:1008000000A800F063FF4FF40070ADF8000028204E
:100810008DF8030000A9DFF8080800F0F3FE00A837
:1008200000F054FF4FF48060ADF8000028208DF8F0
:10083000030000A9DFF8E80700F0E4FE00A800F0DC
:1008400045FF4FF40060ADF8000028208DF803004C
:1008500000A9DFF8CC0700F0D5FE00A800F036FFB5
:100860004FF48050ADF8000028208DF8030000A957
:10087000DFF8AC0700F0C6FE00A800F027FF4FF439
:100880000050ADF8000002208DF8020010208DF815
:10089000030000A9DFF8880700F0B4FE00A800F00C
:1008A00015FF4FF48040ADF8000002208DF80200E3
:1008B00010208DF8030000A9DFF8640700F0A2FE05
:1008C00000A800F003FF4FF40040ADF80000022044
:1008D0008DF8020010208DF8030000A9DFF8400712
:1008E00000F090FE4FF6FF71DFF8340700F007FFCD
:1008F00000A800F0EBFE0420ADF8000002208DF807
:10090000020010208DF8030000A9DFF8740700F042
:1009100079FE0421DFF8080700F0F1FE062101202E
:1009200000F0F9FE0821022000F0F5FE0921022066
:1009300000F0F1FE0A21022000F0EDFE0B21022062
:1009400000F0E9FE0C21022000F0E5FE0F2101205D
:1009500000F0E1FE01BD00B583B040200090002012
:100960008DF8040008208DF8050001208DF80600A0
:1009700000A801F0D9F94FF48070009000208DF8A4
:10098000040008208DF8050001208DF8060000A85D
:1009900001F0CAF94FF40070009000208DF80400B7
:1009A00008208DF8050001208DF8060000A801F050
:1009B000BBF94FF48060009000208DF804000C20FB
:1009C0008DF8050001208DF8060000A801F0ACF9B3
:1009D0004FF40060009000208DF804000C208DF88A
:1009E000050001208DF8060000A801F09DF94FF4E4
:1009F0008050009000208DF804000C208DF8050038
:100A000001208DF8060000A801F08EF94FF4004097
:100A1000009000208DF804000C208DF805000120C6
:100A20008DF8060000A801F07FF907BD00B585B07C
:100A30000020009001208DF8040001208DF80500B1
:100A40005FF4602002900020039002208DF81000D7
:100A500000A9DFF8300601F0CBF9052301220021BF
:100A6000DFF8200601F031FA052302220121DFF828
:100A7000140601F02AFA40F2C77240F60F11DFF8AF
:100A8000040601F010FB5FF40001DFF8F80501F047
:100A900002FB01224FF4A071DFF8E80501F0DBF959
:100AA0000121DFF8E00501F0C9F9DFF8D80501F010
:100AB000E1F9DFF8D00501F0E2F90028F9D1DFF81B
:100AC000C40501F0E6F9DFF8BC0501F0E7F90028FC
:100AD000F9D10121DFF8AC0501F0EAF9002000901E
:100AE00000208DF8040000208DF805005FF4002040
:100AF00002900020039001208DF8100000A9DFF87B
:100B0000880501F075F9052301220821DFF8780531
:100B100001F0DBF90121DFF86C0501F09FFA0523F4
:100B200001220921DFF8600501F056FA4FF4E04197
:100B3000DFF8540501F048FA0121DFF84C0501F017
:100B400036FA0121DFF8400501F021FA01224FF4C5
:100B50009061DFF8340501F07EF90121DFF8280506
:100B600001F06CF9DFF8200501F084F9DFF81805D1
:100B700001F085F90028F9D1DFF80C0501F089F9B9
:100B8000DFF8040501F08AF90028F9D105B000BDAD
:100B9000E0B500A801F0FCFA4FF6FF70ADF80400D4
:100BA000FF20ADF800000020ADF806000020ADF8F1
:100BB000020000A9DFF8D40401F0A0FA2021DFF838
:100BC000CC0401F0FFFA0121DFF8C00401F0ECFAD7
:100BD00007BD00B585B000A801F074FB5FF461208B
:100BE00000900020ADF804000020ADF806000020C1
:100BF000ADF808000020ADF80C000C20ADF80A009C
:100C000000A9DFF88C0401F0FBFA0122C021DFF813
:100C1000800401F073FB0121DFF8740401F060FB34
:100C20005FF4E130009000A9DFF8680401F0E8FA11
:100C30000122C021DFF85C0401F060FB0121DFF834
:100C4000540401F04DFB00A9DFF84C0401F0D8FA80
:100C50000122C021DFF8400401F050FB0121DFF840
:100C6000380401F03DFB05B000BD00B585B000A81B
:100C700001F070FB0020ADF800004FF48270ADF879
:100C800002000020ADF804000020ADF806000020AE
:100C9000ADF808004FF40070ADF80A003020ADF850
:100CA0000C000020ADF80E000820ADF8100000A9DF
:100CB000DFF8E80301F02EFB05B000BD00B58BB0F6
:100CC00000A801F015FCDFF8D80301F06DFBDFF898
:100CD000D4030090DFF8D003019010200290402050
:100CE00003900020049080200590002006900020B2
:100CF0000790002008900020099000200A9000A989
:100D0000DFF89C0301F0D5FBDFF8A00301F04CFBFA
:100D1000DFF890030090DFF8980301900020029024
:100D2000C0200390202008904FF40050099000A9A3
:100D3000DFF8780301F0BDFBDFF8780301F034FB46
:100D4000DFF874030090DFF8740301901020029024
:100D500040200390002008900020099000A9DFF8AF
:100D6000540301F0A6FBDFF8580301F01DFBDFF888
:100D700048030090DFF84C03019000200290C0204F
:100D80000390202008904FF40050099000A9CC480F
:100D900001F08FFBCC4801F007FBCC480090CC4819
:100DA0000190102002904020039000200890002025
:100DB000099000A9C44801F07CFBC64801F0F4FA90
:100DC000C2480090C448019000200290C0200390C7
:100DD000202008904FF48050099000A9BD4801F0F0
:100DE00068FB01220221BB4801F0A7FB0121AF48AB
:100DF00001F095FB0121B24801F091FB0121B548BA
:100E000001F08DFB0BB000BD80B580B24FF47A715C
:100E1000484300F001F801BDB0490860B048012125
:100E20000170AE4800680028FBD1AD480021017078
:100E30007047000018ED00E014E000E018E000E06A
:100E400070B504000E00200001F0DAFB0500F6B2D8
:100E5000012E05D0C0F08280032E57D02BD37DE029
:100E6000002005E080B2904922784254641C401C66
:100E700080B2ADB2A842F5D30021894801F04FFB02
:100E8000290089B2864801F064FB4FF4005001F05C
:100E900074FB0121824801F042FB4FF4005001F045
:100EA0005BFB0028F9D000217D4801F038FB7E482B
:100EB00000F05AF852E0002005E080B27F49227825
:100EC0004254641C401C80B2ADB2A842F5D300214C
:100ED000784801F024FB290089B2764801F039FBFB
:100EE0005FF0007001F049FB0121724801F017FB2F
:100EF0005FF0007001F030FB0028F9D000216D4850
:100F000001F00DFB6D4800F02FF827E0002005E010
:100F100080B26F4922784254641C401C80B2ADB24A
:100F2000A842F5D30021684801F0F9FA290089B2F6
:100F3000654801F00EFB202001F01FFB01216248F3
:100F400001F0EDFA202001F007FB0028FAD0002183
:100F50005D4801F0E4FA5E4800F006F870BD00005C
:100F60001C00002040420F005149884205D05549DD
:100F7000884202D05849884201D1C02100E0402176
:100F8000002203E000230370401C521C92B289B27D
:100F90008A42F7D37047000000E400E04C440008A8
:100FA00080B5C0B2012804D036D3032821D010D395
:100FB00032E000213D4801F0B2FA3D48FFF7D4FF8E
:100FC000C0213A4801F0C5FA0121384801F0A7FADA
:100FD00022E000213A4801F0A2FA3A48FFF7C4FFA4
:100FE000C021374801F0B5FA0121354801F097FAE0
:100FF00012E00021374801F092FA3748FFF7B4FFBA
:10100000C021344801F0A5FA4FF4007001F0B5FAA0
:101010000121304801F083FA01BD000010E000E03A
:10102000001001408E03002080B52E48C07A0A28A7
:101030000CD00B280ED00D2810D00E2812D00F285F
:1010400014D0102813D0142812D011E0002000F082
:1010500011FC0DE0012000F00DFC09E0012000F082
:101060006AFC05E0002000F066FC01E000E0FFE71C
:101070001C480021C17201BD00080140000C014064
:1010800000140140002401400028014000040040F9
:10109000003801400044004000480040003001405A
:1010A00044000240043801406C0200205800024015
:1010B000200000208000024004440040B0020020D4
:1010C0006C000240E40000201C0002400448004084
:1010D000F402002030000240A80100208803002014
:1010E000910300207C030020DFF8E800DFF8E8101F
:1010F0000160DFF8E000DFF8E4100160704738B508
:10110000040004255FF4302000F070F80500EDB213
:10111000042D20D1DFF8C800006850F00200DFF88D
:10112000C0100860DFF8BC000460DFF8B40000689D
:1011300050F04000DFF8A81008605FF4302000F0A5
:1011400055F80500DFF89800006841F6FD71084089
:10115000DFF88C1008602800C0B232BD70B5040002
:101160000D0004264FF4005000F040F80600F6B2DF
:10117000042E16D1DFF86800006850F00100DFF897
:101180006010086025804FF4005000F02FF8060032
:10119000DFF84C00006841F6FE710840DFF84010AF
:1011A00008603000C0B270BD04200F490968C9074B
:1011B00001D501200CE00C480068400701D5022051
:1011C00006E009480068C00601D5032000E00420BD
:1011D000C0B270470420024023016745AB89EFCDC0
:1011E00010200240142002400C20024038B50400B8
:1011F0000425FFF7D9FF050003E0FFF7D5FF050041
:10120000641EEDB2012D01D1002CF6D1002C00D1CD
:1012100005252800C0B232BD70B506220623002481
:10122000002000215FF0FF35DFF8B8633688320018
:10123000DFF8B4633688330092B2002A00F09D8054
:101240004EF6EE66B24230D04FF6FF76B24240F034
:10125000F0809BB2002B08D1DFF88803FFF74FFF27
:1012600080B2042820D080B2EBE09BB24EF6EE6054
:10127000834212D1DFF86C03FFF741FF80B20428EC
:1012800001D080B2DDE00021DFF85C03FFF766FFEC
:1012900080B2042808D080B2D3E000F00AF980B20E
:1012A000042801D080B2CCE0CAE09BB2002B44D12C
:1012B000002400E0641CA4B2032C2BDADFF82C031A
:1012C0000088A4B2DFF8281331F8141080B28842E5
:1012D00000D12500A4B22DB2AC42EBD0DFF814133C
:1012E000A4B2DFF80C0330F8140000F0ABF80100F2
:1012F00089B20129DED0DFF8FC020188A4B2DFF850
:10130000F00230F8140000F027F980B20428D1D0A0
:1013100080B296E00021DFF8CC02FFF71FFF80B219
:10132000042801D080B28CE0DFF8BC02FFF7E7FEB2
:1013300080B2042820D080B283E09BB24FF6FF70C9
:10134000834212D1DFF8A002FFF7D9FE80B2042851
:1013500001D080B275E00021DFF88802FFF7FEFEC1
:1013600080B2042808D080B26BE000F0A2F880B20E
:10137000042801D080B264E062E09BB2002B06D169
:1013800000F097F880B2042852D080B259E09BB2A6
:101390004FF6FF70834208D1DFF84C02FFF7AFFE33
:1013A00080B2042844D080B24BE0002400E0641CEA
:1013B000A4B2032C2BDADFF840020088A4B2DFF8D5
:1013C000301231F8141080B2884200D12500A4B246
:1013D0002DB2AC42EBD0DFF81C12A4B2DFF8100241
:1013E00030F8140000F02EF8010089B20129DED097
:1013F000DFF800020188A4B2DFF8F40130F814002D
:1014000000F0AAF880B20428D1D080B219E00021FF
:101410007548FFF7A3FE80B2042801D080B210E027
:101420007048FFF76CFE80B2042801D080B208E05B
:1014300006E000F03EF880B2042801D080B200E05F
:10144000042070BD2DE9F04704000D00002645F290
:1014500055590127DFF88CA1DFF88881002000F0C2
:1014600046F80600B6B2AB2E01D1AB201FE0B6B2F3
:101470004FF400605B4900FB0618B6B24FF4006001
:101480005E4900FB061A01E0BAF1040A18F10200F5
:1014900050450AD2BAF800901FFA89F9A4B2A145C2
:1014A000F2D13AF8020C28800027380080B2BDE85B
:1014B000F08710B504244B48FFF721FE0400E4B286
:1014C000042C02D02000C0B210E000214548FFF7F4
:1014D00045FE0400E4B2042C02D02000C0B205E0B6
:1014E0004148FFF70CFE04002000C0B210BD0621E9
:1014F00006223C4B1B8819003B4B1B881A00C0B2CC
:1015000000281BD0012825D192B2002A08D189B227
:101510004EF6EE60814201D100201CE001201AE06D
:1015200089B2002908D192B24EF6EE60824201D112
:10153000012010E000200EE0AB200CE089B2002971
:1015400001D1002007E092B2002A01D1012002E07F
:10155000AB2000E0002070472DE9F84304000D00A7
:101560005FF0040800261F4FDFF894900120FFF77A
:10157000BEFF0600B6B2AB2E01D1AB202FE0B6B253
:101580004FF40060174900FB0617B6B24FF4006035
:101590001A4900FB061900E03F1D4F451ED238686E
:1015A00010F1010FF8D1290089B23800FFF7D6FDFC
:1015B00080465FFA88F8B8F1040F04D05FFA88F823
:1015C000404680B20BE0210089B2B81CFFF7C6FD8F
:1015D00080465FFA88F8404680B200E08020BDE88F
:1015E000F28300000000010800080108060001085D
:1015F000100000208C03002006080108FE070108E7
:10160000FF070108F0B40022002600240025002373
:10161000002791F803C01CF00F0C624691F803C03C
:101620005FEACC6C01D58B781A430B781B0621D06E
:101630000368002406E0CD78482D02D10125A5409D
:101640000561641C082C14D20125A5400E882E408B
:10165000AE42F6D1A5000F2616FA05F7BB4312FAE3
:1016600005F52B43CD78282DE5D10125A540456111
:10167000E7E703600B88FF2B26DD4368002420E0AA
:10168000012514F10806B5400E882E40AE4217D150
:10169000A5000F2616FA05F7BB4312FA05F52B43F2
:1016A000CD78282D04D1012514F10806B5404561F7
:1016B000CD78482D04D1012514F10806B540056107
:1016C000641C082CDCD34360F0BC70474FF6FF71FC
:1016D0000180022181700421C1707047002280685E
:1016E00089B2084201D0012200E000221000C0B2FD
:1016F000704789B20161704789B2416170475FF4F8
:10170000803289B20A43826189B2816182618269D1
:1017100080690200704710B400220F2311F0030407
:10172000E4B2A400A3401A00C9B28B100E4C54F8C6
:10173000233033EA0202C9B28B100B4C44F8232049
:10174000C9B28A10084B53F82220C0B211F003032B
:10175000DBB29B0098401043C9B28910024A42F89C
:10176000210010BC704700000800014080B54FF414
:1017700080713948FFF7C0FF6420FFF745FB4FF445
:1017800080713548FFF7B5FF6420FFF73DFB01206E
:10179000FFF706FC31480A21017001BD80B53048D1
:1017A00000F028F8002809D001212E48FFF748FB57
:1017B0002A480A2101700120FFF7F2FB2A492B4831
:1017C00000F039FF002809D001212948FFF738FB34
:1017D00022480A2101700120FFF7E2FB1F48007830
:1017E000401E1E4908701D480078002801D1FFF7EF
:1017F000BDFF01BDF0B400210278401C002300E0D1
:101800005B1C9BB2C02B24DA9BB2184C1C5D057884
:10181000AC42F5D11C00641C0600761C022503E0D6
:101820009BB2124959186D1CEDB2D2B295420CD23E
:1018300021004C1C37007E1C89B2DFF830C011F843
:101840000C103F78B942EBD000210029D8D0080015
:1018500000E00020F0BC7047000801409003002029
:1018600098440008E043000880440008200000205D
:101870003844000880B5C0B2012842D14FF48061DD
:101880009548FFF72BFF00282ED04FF400619248B7
:10189000FFF724FF002827D04FF480518E48FFF730
:1018A0001DFF012820D104218C48FFF717FF0028D5
:1018B0001AD120218848FFF71CFF4FF47A70FFF7F8
:1018C000A3FA20218448FFF717FF8548C079002834
:1018D00003D104218348FFF70FFF022000F0B1F885
:1018E0007F480121817225E0C0217B48FFF701FF7D
:1018F0004FF4FA60FFF788FAC0217748FFF7FCFE43
:1019000018E0C0B2002815D110217348FFF7F1FE8E
:101910004FF47A70FFF778FA10216F48FFF7ECFE6A
:1019200004217048FFF7E5FE012000F08AF86C48BA
:101930000021817201BD70B51426C0B201286CD19E
:101940004FF400416548FFF7C9FE012861D1042129
:101950006248FFF7C3FE00285BD161480121C171D5
:1019600004216048FFF7C5FE4FF490715B48FFF714
:10197000C0FE4FF47A60FFF747FA002405E0B61C7A
:101980004FF47A60FFF740FA641CE4B2042C1FDACB
:1019900080215248FFF7ADFE002500E06D1CEDB23E
:1019A000F6B2B54209D26420FFF72EFA4FF4804117
:1019B0004A48FFF793FE0128F0D180214748FFF7FE
:1019C0009BFE4FF480414548FFF788FE0128D6D1A1
:1019D0004FF480414148FFF781FE012805D14FF4C3
:1019E00000713E48FFF785FE2AE04FF490713B48B6
:1019F000FFF782FE3A480021C1713948807A0128F8
:101A000003D104213748FFF777FE022000F019F8D0
:101A100016E0022000F015F812E0C0B200280FD145
:101A20004FF448712D48FFF767FE2D480021C17122
:101A30002B48807A012803D104212A48FFF75CFE55
:101A400070BD10B5C0B2012804D043D303282BD0F9
:101A50000DD33FE0C0212048FFF74BFE4FF4FA7052
:101A6000FFF7D2F9C0211C48FFF746FE32E0C02143
:101A70001948FFF73EFE4FF4FA70FFF7C5F9C02191
:101A80001548FFF739FE4FF4FA70FFF7BDF9C02192
:101A90001148FFF72EFE4FF4FA70FFF7B5F9C02199
:101AA0000D48FFF729FE15E0002410E0C0210A4888
:101AB000FFF71FFE4FF4FA70FFF7A6F9C0210648A2
:101AC000FFF71AFE4FF4FA70FFF79EF9641CE4B2B8
:101AD000032CEBDB10BD000000100140000C0140A6
:101AE0007C030020001401400021594A12681100B3
:101AF00031F4404101435648016070475549002286
:101B00000A70544900220A70C0B2012802D0042889
:101B100004D007E04F480121017003E04D48052142
:101B20000170FFE7704730B4002200210023002439
:101B3000474D2D6815F00C052A00002A04D0042A10
:101B400005D0082A06D021E04349016020E043493E
:101B500001601DE03E49096811F470113C4A1268A9
:101B600012F48033890C891C002B03D13C4A514369
:101B700001600AE0364A1268920303D5364A51439F
:101B8000016002E0354A5143016001E032490160E1
:101B90002F49096811F0F00212093249545C0168BA
:101BA000E14041602A49096811F4E062120A2D49B6
:101BB000545C4168E14081602549096811F4605234
:101BC000D20A2849545C4168E140C1602049096853
:101BD00011F44042920B2449545CC168B1FBF4F10A
:101BE000016130BC7047C9B2002905D01F4909689E
:101BF00008431E49086005E01C49096831EA0000F5
:101C00001A4908607047C9B2002905D01849096807
:101C100008431749086005E01549096831EA0000E2
:101C2000134908607047C9B2002905D011490968F5
:101C300008431049086005E00E49096831EA0000D0
:101C40000C49086070470C49C0B20860704700003A
:101C5000041002402010024000127A000024F40018
:101C600000093D0000000020180000201410024070
:101C7000181002401C100240400442420149C0B208
:101C80000860704720000E4280B50120FFF7DBFF9F
:101C90000020FFF7D8FF01BD0149C0B208607047BE
:101CA00000860D421B4908431B490860704710B469
:101CB000002100220F23C478002C1ED01649096889
:101CC00011F4E061D1F5E061090AD1F10402CB40E1
:101CD0004178914082781A401143090102780F4BF4
:101CE000D154017849110E4A0123007810F01F00E9
:101CF00013FA00F042F821000AE001784911094A7C
:101D00000123007810F01F0013FA00F042F82100C0
:101D100010BC70470000FA050CED00E000E400E0A4
:101D200000E100E080E100E000212C4A110082790E
:101D3000002A35D0294A126803689A43274B1A6053
:101D4000274A126803689A43254B1A600279511892
:101D50000A6803681A430A602249096802689143C5
:101D6000204A116020490968026891431E4A1160A7
:101D7000417910290CD11B49096802681143194A9D
:101D800011601949096800680843174908600EE0A6
:101D90001249427951180A6800681043086006E049
:101DA000027951180A68006832EA0000086070473A
:101DB00000210022094B1B6803401A000B4B1B68D3
:101DC000034203D0002A01D0012100E000210800D5
:101DD000C0B2704705490860704700000004014028
:101DE00004040140080401400C04014014040140B3
:101DF00030B40023002244682300DFF8B4422340BB
:101E00000C680D7954EA0524234343608368DFF8A6
:101E1000A4422340CC688D682C434D7954EA450494
:101E200023438360C36A33F47003097C491E0A4369
:101E3000D2B253EA0253C36230BC7047C9B2002920
:101E400004D0816851F00101816003E08168490894
:101E500049008160704700230B00D2B2002A04D0F1
:101E60004168DBB21943416003E04168DBB299434A
:101E700041607047816851F008018160704700211E
:101E80008068000701D5012100E000210800C0B2F0
:101E90007047816851F004018160704700218068BB
:101EA000400701D5012100E000210800C0B27047C1
:101EB000C9B2002904D0816851F4A001816003E017
:101EC000816831F4A00181607047F0B400240025DE
:101ED000C9B20A2911DBC4680725B1F10A06032734
:101EE0007E43B540AC43DBB2B1F10A05032675432E
:101EF00013FA05F52C43C4600EE004690725032698
:101F000006FB01F6B540AC43DBB2032505FB01F54A
:101F100013FA05F52C430461D2B2072A10DA446B98
:101F20001F23551E0526754313FA05F5AC43C9B2A8
:101F3000521E05235A4311FA02F52C43446324E050
:101F4000D2B20D2A10DA046B1F23D51F0526754364
:101F500013FA05F5AC43C9B2D21F05235A4311FA4F
:101F600002F52C43046310E0C46A1F23B2F10D058F
:101F70000526754313FA05F5AC43C9B20D3A05239E
:101F80005A4311FA02F52C43C462F0BC7047C9B23F
:101F9000002904D0816851F48011816003E08168D8
:101FA00031F4801181607047C06C80B27047C9B253
:101FB000002904D0416851F48061416003E0416828
:101FC00031F4806141607047002283681A0032F466
:101FD000E0420A4382607047F0B4002400250026E6
:101FE000C9B20A2911DBC4680725B1F10A06032723
:101FF0007E43B540AC43DBB2B1F10A05032675431D
:1020000013FA05F52C43C4600EE004690725032686
:1020100006FB01F6B540AC43DBB2032505FB01F539
:1020200013FA05F52C430461846BC4F301561F2396
:10203000D2B2D51CAD1B6D1E05277D4313FA05F5E5
:10204000AC43C9B2D2B2D21C921B521E05235A43D2
:1020500011FA02F52C438463F0BC704710B40022DF
:102060000023846B220032F44012C9B2491E0B00D7
:1020700052EA0352826310BC704781B00022009282
:1020800000900098C9B228310818009000980068A4
:1020900080B201B07047002243681A00064B1A4014
:1020A0000A434260704789B2416292B282627047CD
:1020B000FFFEF0FFFDF7F1FFFFFD3FFF30B4002210
:1020C0000023002489B20D0AADB22B004568C9B2C5
:1020D00029400C000068184203D0002C01D00122D6
:1020E00000E000221000C0B230BC7047002289B26C
:1020F000090A0A00D2B2D143016070470022038866
:102100001A00DFF8D430984212D0DFF8E430984259
:102110000ED0B0F1804F0BD0DFF8C030984207D01E
:10212000DFF8BC30984203D0DFF8B830984204D1D1
:102130004FF68F731A404B881A43DFF8AC30984241
:1021400008D0DFF8A830984204D04FF6FF431A4079
:10215000CB881A4302808A8882850A880285DFF844
:10216000782090420FD0DFF8882090420BD0DFF823
:102170008420904207D0DFF88020904203D0DFF81F
:102180007C20904201D1097A018601218182704729
:102190004FF6FF718180002101800021C180002164
:1021A0004180002101727047C9B2002904D0018822
:1021B00051F00101018004E001884FF6FE721140E8
:1021C0000180704782884FF68F731A408280828820
:1021D0001143818070470000002C01400004004042
:1021E00000080040000C00400010004000140040B7
:1021F00000340140004001400044014000480140DB
:10220000F0B585B004000D0000200021002200235D
:102210000026AF89002F2600208A4CF6FF71084067
:10222000E98808432082A0894EF6F3110840A98866
:102230002A8911436A8911430843A081A08A4FF675
:10224000FF410840A9890843A08200A8FFF76BFC62
:102250001B48864201D1039900E00299A08900043D
:1022600007D5192000FB01F029684900B0FBF1F205
:1022700006E0192000FB01F029688900B0FBF1F2AB
:102280006420B2FBF0F000010109642303FB112379
:10229000A189090408D5D90032316422B1FBF2F1D9
:1022A00011F00701084307E0190132316422B1FB44
:1022B000F2F111F00F010843208105B0F0BD0000DC
:1022C000003801404FF41651016000218180002147
:1022D000C180002101810C21418100218181704751
:1022E000C9B2002904D0818951F40051818104E0F0
:1022F00081894DF6FF72114081817047D2B2002A68
:1023000003D0828A1143818203E0828A32EA01018A
:102310008182704710B4002203881A0012F44152DF
:102320000B884C8823438C882343CC8823430C8917
:1023300023434C8923438C892343CC8923431A4369
:102340000280828B4FF2FF731A408283098A0182D6
:1023500010BC704700210180002141800021818054
:102360000021C18000210181002141810021818162
:102370000021C18107210182704710B450F8041B6D
:1023800081B102681218001D50F8043BDC0744BFFD
:10239000A9F10104E31852F8044B43F8044B091F58
:1023A000F9D1EBE710BC704701684FF6FE7211409F
:1023B0000160002101600021416000218160002155
:1023C000C1607F49884206D17E48006850F00F0006
:1023D0007C4908606CE07C49884206D179480068F5
:1023E00050F0F0007749086062E07849884206D1F1
:1023F0007448006850F470607249086058E074498D
:10240000884206D16F48006850F470406D490860FA
:102410004EE07049884206D16A48006850F4702046
:102420006849086044E06C49884206D16548006804
:1024300050F47000634908603AE06849884206D168
:102440006048006850F070605E49086030E06449A0
:10245000884206D16348006850F00F006149086067
:1024600026E06149884206D15E48006850F0F000DD
:102470005C4908601CE05D49884206D15948006803
:1024800050F470605749086012E05949884206D1FB
:102490005448006850F470405249086008E05549BB
:1024A000884205D14F48006850F470204D490860BB
:1024B000704710B4002203681A006FF30E128B6885
:1024C0000C6A23430C6923434C6923438C692343DF
:1024D000CC6923434C6A23438C6A23431A4302602A
:1024E000CA6842600A6882604968C16010BC70476F
:1024F0000021016000214160002181600021C16054
:102500000021016100214161002181610021C1613F
:102510000021016200214162002181627047C9B23D
:10252000002904D0016851F00101016004E0016854
:102530004FF6FE72114001607047D2B2002A03D0FC
:1025400002681143016003E0026832EA01010160A0
:10255000704789B24160704700210022C30002D554
:1025600025490A6801E025490A68024201D0012193
:1025700000E000210800C0B27047C10002D519492F
:10258000086001E00F490860704700210022C30085
:1025900002D519490A6801E018490A68024201D0C7
:1025A000012100E000210800C0B27047C10002D53F
:1025B0000C49086001E00349086070470000000012
:1025C00008000240040002401C00024030000240AB
:1025D00044000240580002406C000240800002406B
:1025E00008040240040402401C040240300402407B
:1025F000440402405804024000040240000002402B
:1026000000F10103810704D010F8011B89B1810793
:10261000FAD10268B2F10131914311F0803F04BF59
:1026200050F8042FF6E710F8011B11B110F8011B48
:10263000FBE7C01A704780B500F001F802BD38B55D
:102640000C46217831B932BD11F8013F1578AB4203
:1026500006D0401C217800F019F828B10146224626
:1026600012F8013F002BEFD132BD50F8041B61B1CD
:1026700050F8042BD30744BFA9F101039A18002393
:1026800042F8043B091FFAD1EFE770470278C9B25C
:102690008A421AB11CBF10F8012FF9E718BF0020B9
:1026A00070470268531C0360117070472DE9F04FAA
:1026B000A1B0824602AE002017461D46029170620C
:1026C0000DF144080AE017F8011B0298D047029068
:1026D000002800F08B82706A401C7062387808B95C
:1026E000706A85E22528EED10020F06030617061CB
:1026F000B061F061306201E040F0010017F8011FA5
:102700002029F9D023290DD02B2904D02D2906D03A
:1027100030290AD00CE040F0020080B2EEE740F031
:102720000400FAE740F00800F7E740F01000F4E793
:102730002A290DD129680A1D2A600968F162002939
:1027400004D5494240F00400F16280B27F1C13E0DE
:102750000021F1620BE0F16A6FF00043994205D06D
:1027600001EB810302EB43013039F1627F1C3A78BF
:10277000A2F130010A29EED339782E2903D04FF087
:10278000FF31B1621EE017F8011F2A2906D129681E
:102790000A1D2A607F1C0968B16213E00021B16242
:1027A0000BE0B16A6FF00043994205D001EB810361
:1027B00002EB43013039B1627F1C3A78A2F130015B
:1027C0000A29EED330860FF6C0303978FFF75EFF66
:1027D00008B117F8010B8DF83A009DF83A00682807
:1027E00002BF39786829622005D06C2804BF387888
:1027F0006C2803D171208DF83A007F1C11A8B060BD
:102800003978B1F1250023D01C3871D0001F02287F
:102810006ED9133800F09780093869D0801E00F017
:102820002B81401E00F0D480401E022860D9001F7A
:1028300000F0CE80401F30D0401E00F08480401E4B
:1028400020D0C01E09D0801E7DD0C01E7BD01BE1D1
:10285000F068411CF160252120E12868011D2960F4
:102860000068B26A7060002A02D5FFF7C9FE07E06F
:10287000002100F097FD00281ABF7168401AB06A65
:1028800030610DE12868011D296000210068CDE953
:10289000000111A870607821EAE09DF83A006228F2
:1028A00018D0682806D06A280BD06C2819D0712857
:1028B00007D016E02868011D29600068716A018050
:1028C000EEE02A68101D28601268706AC117C2E91C
:1028D0000001E5E02868011D29600068716A017047
:1028E000DEE02868011D29600068716A0160D7E098
:1028F0002868C01D20F00700286000F108022A6047
:10290000D0E90023CDE90023002B04D5F068421C58
:10291000F2602D220DE0308E820704D5F068421C53
:10292000F2602B2205E0C00705D5F068421CF2607A
:10293000202200F80820F06811AA8018706000A812
:1029400000F0E2F9ACE09DF83A006C2808BF2A6874
:1029500011D0712808BF2A6802D02A686A280AD1D3
:10296000D21D22F007022A60144604F108022A60F0
:10297000D4E9002303E0131D2B6000231268CDE986
:102980000023682808BF92B207D0622808BFD2B2DD
:1029900003D0742818BF7A2802D10023CDE9002380
:1029A00096F8300000075FD5DDE90023002B08BF53
:1029B000002A59D041F02000782855D1F068302203
:1029C00000F80820401C421CF26000F808104BE0A0
:1029D0009DF83A0062280CD0682810D06A281AD0D6
:1029E0006C2823D0712816D074281FD07A280CD0D8
:1029F0001CE02868021D2A6090F900201AE028686F
:102A0000021D2A60B0F9002014E02868021D2A6027
:102A1000002302680FE02868C01D20F0070028602E
:102A200000F108022A60D0E9002304E02868021DB2
:102A30002A600268D317CDE90023002B04DAF0687E
:102A4000421CF2602D220DE0308E820704D5F06822
:102A5000421CF2602B2205E0C00705D5F068421C3D
:102A6000F260202200F80820F06811AA8018706037
:102A700000A800F0C0F813E0F068411CF16029687C
:102A80000A1D2A60096809E0F068421CF2602522EC
:102A900000F8082021B1F068421CF26000F808102C
:102AA000F06AF168401AB169401A3169401AF16957
:102AB000401A7169401A316AA0EB010996F830009A
:102AC0007F1C400710D420208DF84000002409E02E
:102AD000012310AA00A9504600F03EFC002840F057
:102AE0008580641C4C45F3DBF4680DF1440B0AE06F
:102AF0001BF8011B0298D0470290002876D0706A1C
:102B0000401C7062641E002CF2D130208DF8400011
:102B10004FF0000BB46909E0012310AA00A9504648
:102B200000F01AFC002861D10BF1010BA345F3DB87
:102B30003469D6F804B00AE01BF8011B0298D047AC
:102B40000290002852D0706A401C7062641E002CF3
:102B5000F2D130208DF840004FF0000BF46909E00D
:102B6000012310AA00A9504600F0F6FB00283DD131
:102B70000BF1010BA345F3DB30697168746900EB5D
:102B8000010B09E01BF8011B0298D047029068B3C3
:102B9000706A401C7062641E002CF3D130208DF8E6
:102BA00040004FF0000B346A08E0012310AA00A98E
:102BB000504600F0D1FBC8B90BF1010BA345F4DB83
:102BC00096F8300040077FF589AD20208DF8400051
:102BD000002400E0641C4C45BFF680AD012310AA20
:102BE00000A9504600F0B8FB0028F3D04FF0FF30AA
:102BF00021B0BDE8F08F2DE9FA47064682B035696D
:102C00000A466F2A08BF082705D041F0200078281F
:102C100014BF0A271027D6E900013C2480468946C4
:102C2000642A18BF692A05D1002903DAD8F10008FF
:102C300069EB4909B9F1000F08BFB8F1000F0CD1D9
:102C4000306B50B9082F3BD196F83800000737D5C4
:102C500030203B2485F83B0032E0CDE90089FB17AA
:102C6000404649463A4600F0C9FBB846A8FB002357
:102C7000DDE90089A8EB02023032A4F1010AD2B2E8
:102C800054463A2A03DB9DF80830513B9A180AF85B
:102C9000052080465FEA010908BFB8F1000F03D0A4
:102CA000F06861198842D8D3082F09D196F8380006
:102CB000000705D5605D302802D0641E30206055C5
:102CC000C4F13C00B0616119F160316B884207DAF0
:102CD000081A30624FF6EF71308F0840308710E0ED
:102CE00000290ED596F8381001F01401102908D1EA
:102CF000716B7269891A326A891A081A0128A8BF89
:102D0000306204B0BDE8F0872DE9F24F04468EB082
:102D1000D4E90001CDE9020104AE9DF8380040F08D
:102D20002000009061280AD0206B002848BF0620B0
:102D300004D404BF0098672801D101202063616892
:102D4000C1F30A5040F2FF7290421CD1080304BF45
:102D50002068002809D10320A0619DF8380061385F
:102D60001A2836D30FF2346108E00320A0619DF8E1
:102D7000380061381A2829D30FF21861E06803225D
:102D800000F0B4FBB5E1012816DA204600F0E9FBBB
:102D9000012811DB002700200099612920D1E1687A
:102DA000302201F8012B4A1CE2609DF83820612A8C
:102DB0000CBF782258220FE0626840F2FE3161F3C6
:102DC0001E52471A62604FF0FF30E5E70FF2C05124
:102DD000D4E70FF2C451D1E70A706169891C6161BF
:102DE00010B9002500277BE10098612840F096800B
:102DF000206B00284CBF2125451CDDE902012DB2C6
:102E00006E1CD4E900890022002300F0CBFB3ABFFE
:102E100089F00040CDE90280CDE902893F1F8DF89D
:102E200010200DF1110801E000F20708012E32DB3D
:102E3000DDE902010022002300F0CCFB2BD21C2193
:102E400002A800F0DFFBDDE9020100F061FCF61FE3
:102E50008146012E09DB00F087FC02460B46DDE9C6
:102E6000020100F099FCCDE9020108F207000721F8
:102E700005E009F00F0200F8012D4FEA2919B9F118
:102E8000010F01DB491EF4D5491E5CBF002200F88A
:102E9000012DF9D5C8E70DF11100A8EB00010DF1E6
:102EA0001106A942B8BF0D462DB228002FD4884282
:102EB00006DA04A9411849780829A8BF0F2100DAC9
:102EC000002104AA821800E06D1E12F80139401E8C
:102ED0008B42F9D00F2904D104A941184A78521C19
:102EE0004A70002802D504AE6D1C3F1D2DB2681E2D
:102EF0000DD481190A783032D2B23A2A03DB9DF818
:102F000038303A3B9A1801F80129401EF2D5206B5F
:102F1000002840F1E580681E2063E1E0DDE9020160
:102F20000022002300F03EFB3CBF81F00041CDE9D0
:102F300002013FB247F2975078434849DFF820B189
:102F400090FBF1F73FB2C7F107069246012E19DB5D
:102F5000DDE90289F00707D552465B4640464946FF
:102F600000F0DAFC804689467610504659465246B3
:102F70005B4600F0D1FC82468B46002EEAD1CDE9BB
:102F8000028921E076429046DFF8D89012E0F007FF
:102F900007D552465B464046494600F0BDFC804698
:102FA000894676105046594652465B4600F0B4FCBE
:102FB00082468B46002EEAD1DDE9020142464B46AD
:102FC00000F07CFDCDE90201009866280CBF07F1F6
:102FD0000A000620216B4518142DA8BF13253020A8
:102FE0008DF810000DF11106DFF87C90012D3DDB0E
:102FF000DDE9020100F0A2FB06F1080104220A2328
:10300000B0FBF3F303EB8306A0EB4600303001F88E
:10301000010D0A20B3FBF0F000EB8006A3EB4603A2
:10302000303301F8013D521EE9D1083D01F1080697
:10303000012DDBDBDDE9020100F080FB00F09EFBEF
:1030400002460B46DDE9020100F0A6FB00224B46DA
:1030500000F062FCCDE90201CAE700BFA0860100D2
:10306000000024400000F03F84D797410DF111008B
:10307000301A0DF1110602E0401E7F1E761C3178D9
:103080003029F9D00099662902D13FB2791C03E0BA
:1030900065290CBF01210021226B8D182DB2A84299
:1030A000B8BF05462DB229001AD4814204DA885DE2
:1030B0003528A8BF392000DA30208A19521E00E0D6
:1030C0006D1E12F80139491E8342F9D0392802D108
:1030D000885D401C8855002902D5761E6D1C7F1C1A
:1030E0003FB29DF8381000972BB23246204600F0D0
:1030F00003F80FB0BDE8F08F2DE9F043054685B029
:103100001E46D5F8308089461746012E02DA012680
:103110000FF28C2749F02000BDF93040662808BF27
:10312000641C17D0672840F0818014F1040FC0F2AE
:103130008380444580F2808095F83800641C000745
:1031400002D44645B8BFB04624B2B8EB040848BF25
:103150004FF00008E868A96924B2012C25DA302371
:103160004A1C0B54B8F1010F03DA95F8381009071F
:1031700002D52E211154521CAA6118EB040FB8BFBE
:10318000C8F1000424B26142A0446962B045B8BFEE
:10319000464636B2EE613246AB693946181800F041
:1031A000A5F9A8EB0600A862BFE00818A64218DA45
:1031B0003246394600F09AF9A9697118A961A01B35
:1031C0006862B8F1010F03DA95F83800000705D5F9
:1031D000E8682E220A54E869401CE861C5F8288096
:1031E000A3E02246394600F081F9A8692018361B71
:1031F000B8F1010F03DA95F83810090703D5E9682B
:103200002E224254401C36B2A861B045B8BF464693
:10321000EB6836B23246E119C01800F067F9A869C8
:103220003018A861A8EB060068627EE04846612875
:1032300016D14FF0700917E0464504DA95F83810BA
:10324000090758BFB046B8F1010848BF4FF0000861
:10325000B9F1670F14BF4FF045094FF0650903E05E
:10326000412808BF4FF05009A969E86817F8013BE9
:103270000B544A1CB8F1010F05DA95F8381009070C
:1032800058BFAA6117D52E211154531CAB61B8F158
:10329000010F10DB761E36B2B045B8BF464636B2D7
:1032A00032463946181800F021F9A8693018A8618B
:1032B000A8EB06006862A869E9684718200007F8CB
:1032C000019B03D42B2007F8010B03E02D2107F805
:1032D000011B444200260DF1080808E00A2200A85C
:1032E00000F00FFD019808F8010B761C009C21B23C
:1032F0000129F3DA022E06DA49F02000652804BF1E
:10330000302007F8010B4EB9302007F8010B07E019
:10331000761E02A8305C303007F8010B012EF7DA78
:10332000A869E9684018381AE86195F8380000F093
:10333000140010280DD16869A9690818696A08186D
:10334000E9690818A96A0818696B8842BCBF081A9D
:10335000286205B0BDE8F083F8B504460D46164670
:103360001F46002004E0E86A401CE8627F1E00203F
:1033700047B116F8011BA868A047A8600028F2D141
:103380004FF0FF30F2BD0000686A6C747A4C0000A8
:103390006E616E004E414E00696E6600494E4600F9
:1033A00030000000C9B2830706D0521E22D310F8A5
:1033B000013B9942F7D11FE0083A13D302F104020E
:1033C00041EA012141EA014150F8043B121F21BFAB
:1033D0004B40A3F1013C2CEA030C1CF0803FF3D0DE
:1033E000C9B2001F083210F8013B521E28BF91EAF3
:1033F000030FF8D818BF0120401E70471B4213D19D
:10340000094236D12AB18446B0FBF2F002FB10C269
:10341000704700F07DBCFCD30022002370470B00F6
:103420000200002100207047904271EB030CF6D39C
:1034300070B5B1FA81F4B3FA83F52C1BA340C4F143
:10344000200532FA05F63343A2405FF00046E6401D
:1034500002E05B085FEA3202841A71EB030524BFC5
:10346000204629467641F4D302000B0030000021AB
:1034700070BD012ACFD970B5140C20D0B1FA81F4F7
:10348000B2FA82F5C4F120046419B4F12006D6D34F
:10349000B2405FF00044F440002502E052085FEAC9
:1034A0003303C61A71EB020E24BF304671466441E5
:1034B0006D41F3D302000B002000290070BD0C46C3
:1034C000B1FBF2F102FB11452D0445EA1045B5FBB5
:1034D000F2F402FB145580B240EA0545B5FBF2F068
:1034E00002FB105240EA044070BD000062B38B073B
:1034F00008D0521E11F8013B00F8013B00F0248077
:103500008B07F6D1830740F0208000BF103A07D325
:1035100030B4B1E83810103AA0E83810F9D230BC15
:10352000530724BFB1E80810A0E8081044BF51F8C1
:10353000043B40F8043BD20724BF31F8022B20F8AB
:10354000022B44BF0B7803707047083A07D3B1E8E9
:103550000810083A40F8043B40F804CBF7D2530770
:10356000E4E730B4436803F0004201211B031B0B66
:10357000436004BF0368002B08D10DE00368DD0F32
:1035800045EA440444605B000360491E4468E3026A
:10359000F4D523031B0B436043681A43426008467B
:1035A00030BC70474FF4001C1CEB410F94BF1CEB68
:1035B000430F09E041EA030C50EA4C0C52EA0C0CB0
:1035C00003D2994208BF9042704714BF8B42824297
:1035D000704700004FF4001C1CEB410F94BF1CEB24
:1035E000430F09E041EA030C50EA4C0C52EA0C0C80
:1035F00003D28B4208BF8242704714BF9942904267
:103600007047000070B504460D466068C0F30A506C
:1036100040F2FF71884207D16068000304BF206850
:10362000002817D0022070BD20B92046FFF799FF6F
:10363000012867DA012D0FDB40F2FF71091A8D4274
:103640000AD36068002847BF00202F4900202F4977
:10365000C4E90001012070BD4142A942616806DA57
:103660006FF31E51401941EA0050606041E0401E76
:1036700063680122451962F31F5305F1350001F01B
:1036800000416360352803D361600020206070BD75
:10369000002215F11F0F04DA226823600020203574
:1036A0006060684213D0521E25689241C0F1200329
:1036B000D2439D4045EAD27225686668C54006FA45
:1036C00003F32B432360636823FA00F060606068B3
:1036D00008436060B2F1004F03D80DD12078C007D5
:1036E0000AD52068401C2060206828B96068401C0A
:1036F00060604FF0FF3070BD6068884204BF206892
:103700000028F6D1002070BD0000F0FF0000F07F1F
:10371000F446400D40EAC120490006D200F014F8FA
:10372000004248BF6FF00040604700F00DF84FF0D6
:10373000004188428CBF084640426047400D40EA45
:10374000C120490080F00D8040F00040490DA1F5F6
:103750008061491C05D4D1F11F0154BFC840C01776
:1037600070474FF000007047010040F10980F446B7
:10377000404200F005F851F000416047010000BFF1
:1037800009D0B0FA80F18840C91CC1F584610905EF
:1037900001EBD0214005704770B44FF0004591EA2D
:1037A000030F44BF6B4000F0B5BA00BF841A71EB41
:1037B000030604D26E40001BB141121973414FF44D
:1037C000001C1CEB410F34BF7CEB430684E00C0D66
:1037D000A4EB1356362E7DDC012E43DC45EAC323D1
:1037E00043EA525312BFD20292025B08240545EA13
:1037F000C12141EA5051D2EBC020994125D407D1D3
:10380000B0FA80F610FA06F164D00020203608E005
:10381000B1FA81F6B140C6F1200220FA02F211435A
:10382000B0404FEAF474B4EB465434F001064FEA6A
:1038300074040AD8D6F50016760D04F00044F04062
:1038400061FA06F25040F1404840C00A40EA415057
:1038500021F0004128BF5FEA500550F1000044EB21
:10386000D12137E045EAC323DB0A45EAC121C90A71
:10387000B6F120050EDD42EA0242120CC5F1200627
:1038800003FA06F6EB4042EA06056D42984161F103
:1038900000010DE062FA06F5F240554063FA06FCBD
:1038A00082EA0C02F3405A406D42904161EB030101
:1038B00011F4801F05D1641E620502D06D004041E5
:1038C000494121F48011430875F1004350F1000093
:1038D00041EB045170BC70471CEB410F15D223F033
:1038E000004352EA43060BD04FEA4C0CBCEB410FAD
:1038F00004D80C0D661E342EB7DDEBE7801A994113
:1039000050EA410608BF0021E4E708BF1CEB430F63
:1039100028BF6FF00001DDE7B0B581EA030C0CF0C1
:10392000004C40F2FF7515EA11541DBF15EA1357FC
:10393000AC42AF4239E0E41923EA455343F4801323
:10394000C90241F0004141EA505EC7021100A7FBE5
:10395000020200284FF00000EEFB01204FF00001B2
:10396000E3FB072118BF42F0010240180021494142
:10397000E3FB0E01A4F580640F0302D25200404124
:10398000494154F101046CDD470872F1004250F1E5
:10399000000051EB0451A1F580115CBF41EA0C011C
:1039A000B0BD4CEA05510020B0BD05EA1357AC424A
:1039B00014BFAF4241E050EA410E1CBF52EA430E31
:1039C00002E061460020B0BD24423C441BD15FEAC6
:1039D000070EF6D0090302BF01460020AEF1140E17
:1039E000B1FA81F7AEEB070401FA07FE0C37C7F115
:1039F000200100FA07F7C8404EEA000E23EA4553BB
:103A000043F48013A2E733F00043B3FA83F704BF13
:103A1000B2FA82FE77440B3FE41BB7F1200E2FBFB2
:103A200002FA0EF3BB40C7F1200E22FA0EFE38BF99
:103A300043EA0E03BA40641C82E750EA410E14BF09
:103A400052EA430E6FF000014FF4001717EB430FDB
:103A50008ABF194617EB410FB5E74CEA0551002024
:103A6000B0BDD4F10104B4F120070FDAC4F120078E
:103A7000520828BF42F0010210FA07F501FA07F7D1
:103A8000E1BF2A43E0403843E1400FE0352C98DCA9
:103A9000C7F1200452EA400220FA07F218BF42F0B0
:103AA000010231FA07F0A1400A43002172F10042FD
:103AB00050F1000051EB0C01B0BD0000F0B540F238
:103AC000FF7581EA030C0CF0004C15EA11541DBF80
:103AD00015EA1357AC42AF42E5E0BC41C1F3130114
:103AE000C3F31303801A994143F4801304D2641E74
:103AF0004000494180185941C90241EA5051B1FB87
:103B0000F3F603FB1611A2FB0675D7EBC020A94103
:103B100002D2761E80185941C90241EA5051B1FBC8
:103B2000F3FE03FB1E11A2FB0E75D7EBC020A941CB
:103B300003D2AEF1010E80185941890241EA905139
:103B4000760546EA8E2EB1FBF3F603FB1611A2FBB7
:103B50000675D7EB8020A94102D2761E8018594104
:103B6000C90241EA50514EEA060EB1FBF3F603FBDF
:103B70001611A2FB0675D7EBC020A94102D2761E12
:103B800080185941C90241EA5051B1FBF3F703FBD8
:103B90001711A2FB0735D3EBC020A94167F100073D
:103BA0000CBF004247F0010766F3D5274FEA1E31EC
:103BB000B80814F5806412DDBD0775F1004250EBC2
:103BC0000E5051EB045111F5801F5CBF41EA0C010E
:103BD000F0BD4CF07F6141F0E0410020F0BDBD0739
:103BE0006D0840EA0E5041F48011D4F10104B4F1A3
:103BF00020060ADAC4F120060200E04001FA06F3CA
:103C0000E1401843B24015430EE0342C13DCC6F1FA
:103C1000200445EA40056D0820FA06F2154321FA12
:103C200006F0A1400D43002175F1004250F1000063
:103C300051EB0C01F0BD00205FEA0C01F0BDCFB9E3
:103C400092185B41B3FA83F704BFB2FA82F6BF1948
:103C50000B3FB7F120062FBF02FA06F3BB40C7F1B6
:103C6000200622FA06F638BF3343BA401CB1E419E5
:103C7000641E33E77F4231F00041B1FA81F404BFA2
:103C8000B0FA80F6A4190B3CB4F120062FBF00FA5D
:103C900006F1A140C4F1200620FA06F638BF3143F0
:103CA000A0403C1B1AE7AC421ABF05EA1357AF42CB
:103CB00012E050EA41061CBF52EA4306BFE750EA51
:103CC0004107304661461CBF41EA0551F0BD52EA4A
:103CD000430C08BFC143F0BD00204FF4001616EBA3
:103CE000410F98BF16EB430F08BF16EB410F24BFDF
:103CF000C14305E016EB430F0CBF61464CEA05518A
:103D0000F0BD91FBF2F303FB1211C0E900317047E3
:103D100070470000841A71EB030603D2001BB14107
:103D2000121973414FF4001C1CEB410F34BF7CEBA4
:103D3000430443E00C0DA4EB1356352E50DC45EA4A
:103D4000C323DB0A45EAC121C912B6F120050DDD06
:103D500063FA05F6EB4086EA0305124218BF45F008
:103D60000105C01851F100010CD213E062FA06F50A
:103D7000F2405540F3415A40B340F3405A40801856
:103D8000594107D349085FEA30005FEA350528BF8B
:103D900045F0010501F58011420875F1004250F12E
:103DA000000041EB045170BC4FF4001C1CEB410FB0
:103DB00038BF70470020090D090570471CEB410F03
:103DC00010D252EA43060BD0BCEB410F05D80C0DC4
:103DD000AB43661E342EB5DD02E0AB43801859417B
:103DE00070BC704770BC7047704780B54FF4C051CD
:103DF000DFF88003FDF77DFCF8E7FEE7FEE7FEE76E
:103E0000704770477047DFF87003007801280BD1C6
:103E1000DFF868030068002806D0DFF86003006858
:103E2000401EDFF858130860704710B582B000A834
:103E3000DFF84C130A6802604FF4A071DFF8440306
:103E4000FEF73CF900282BD01E2404E04FF47A70D2
:103E5000FCF7DAFF641EE4B2002C19D00121CA4835
:103E6000FCF7EEFFE4B22200C84900A800F09AF97E
:103E7000012100A8FCF7E4FF012162A0FCF7E0FFAC
:103E8000C348FDF7B7FC0028E0D00120FDF788F813
:103E90000120FDF785F84FF4A071BA48FEF726F926
:103EA0004FF49061BB48FEF709F900282ED04FF47B
:103EB0009061B848FEF71AF9B648FEF775F8B0F504
:103EC000B76F20DCB448002101701421B148FEF71F
:103ED000D4F880B2B0F5E16F03DBAF4863214180D5
:103EE00014E080B240F2DD51884203DAAA48002192
:103EF00041800BE080B2A0F20E60032190FBF1F054
:103F0000A549488002E0A4480121017013BD80B595
:103F10004FF48060FEF739FB002805D04FF4807025
:103F2000FEF744FB00F058F901BD80B54020FDF7D5
:103F30003FFF002827D00A20FCF766FF9648807ACA
:103F400000281DD19448C079002819D10421934834
:103F5000FDF7C4FB012813D140219048FDF7BEFBBB
:103F600001280DD180218D48FDF7C3FB40218B48EE
:103F7000FDF7B4FB0128F9D080218848FDF7BCFB90
:103F80004020FDF727FF4FF48070FDF711FF002858
:103F900014D00A20FCF738FF4FF480718048FDF7F9
:103FA0009DFB012806D17C48807A012802D103209C
:103FB000FDF747FD4FF48070FDF70CFF4FF40070E4
:103FC000FDF7F6FE00281CD00A20FCF71DFF4FF479
:103FD00000717348FDF782FB01280ED16E48807A8C
:103FE00001280AD10320FDF72CFD80216C48FDF744
:103FF00080FB80216A48FDF77FFB4FF40070FDF7DE
:10400000E9FE01BD0D0A000080B54FF48060FDF7A8
:10401000CFFE002823D00A20FCF7F6FE4FF4806183
:104020005F48FDF75BFB002815D15B48807A0128CB
:1040300011D10320FDF705FD5748C079012802D1B1
:104040000020FDF778FC80215548FDF752FB8021C8
:104050005348FDF751FB4FF48060FDF7BBFE4FF472
:104060000060FDF7A5FE002823D00A20FCF7CCFE57
:104070004FF400614A48FDF731FB002815D146484E
:10408000807A012811D10320FDF7DBFC4248C0797A
:10409000012802D10020FDF74EFC80214048FDF7A9
:1040A00028FB80213E48FDF727FB4FF40060FDF719
:1040B00091FE4FF48050FDF77BFE002823D00A20AC
:1040C000FCF7A2FE4FF480513548FDF707FB0028AE
:1040D00015D13148807A012811D10320FDF7B1FCB8
:1040E0002D48C079012802D10020FDF724FC802151
:1040F0002B48FDF7FEFA80212948FDF7FDFA4FF421
:104100008050FDF767FE4FF40040FDF751FE002898
:104110002FD00A20FCF778FE4FF400411F48FDF72E
:10412000DDFA002821D11C48807A01280AD1032019
:10413000FDF787FC80211A48FDF7DBFA802118483B
:10414000FDF7DAFA1448C07901280ED10020FDF7F6
:10415000F2FB6420FCF758FE04211048FDF7BEFA7C
:10416000002802D10220FDF76CFC4FF40040FDF75F
:1041700031FE01BD000801409103002088030020AA
:10418000B84400080024014060440008B04400081E
:10419000A0440008002801407C030020000C0140DE
:1041A000001001400CB41CB5044604A801900A4656
:1041B000009401AB00A9074878441830FEF776FA5E
:1041C000009900220A7000285CBF0098001B16BCF2
:1041D0005DF80CFBCFE4FFFF10B515491248FEF760
:1041E0002AFA0400002C1DD041210F48FEF74EFA98
:1041F00000280ED00D4841214171641C0020C0B23E
:1042000041280FDAC0B20B4922784254641C401C8A
:10421000F5E756210448FEF739FA002802D0034892
:104220005621417110BD0000A80100207C03002030
:10423000A84400083803002080B54F48006850F0BB
:1042400001004D4908604D4800684D4908404B4900
:104250000860494800684B4908404749086046489B
:10426000006830F48020444908604448006830F415
:10427000FE004249086044485FF41F01016000F0FD
:1042800005F842485FF00061016001BD80B500F0B3
:1042900001F801BD82B00020019000200090364856
:1042A000006850F48030344908603348006810F4E6
:1042B000003000900198401C01900098002803D124
:1042C0000198B0F5A06FF0D12B480068800302D5AB
:1042D0000120009001E0002000900098012847D1C3
:1042E0002B48006850F010002949086028480068F1
:1042F00080088000264908602548006850F00200C8
:10430000234908601D481D49096801601B481B4975
:10431000096801601948006850F480601749086016
:104320001648006830F47C1014490860134800688F
:1043300050F4A810114908600F48006850F08070D0
:104340000D4908600C4800688001FBD50B480068E7
:1043500080088000094908600848006850F00200A1
:10436000064908600548006810F00C000828F9D1DB
:1043700002B070470000000000100240041002402C
:104380000000FFF8FFFFF6FE0810024008ED00E015
:104390000020024010B5074979441831064C7C448E
:1043A000163404E00A68081D511888470146A142E6
:1043B000F8D110BD0800000028000000AFE2FFFFA8
:1043C000740300002000002000000000AFDFFFFFAA
:1043D00020000000FC0100000000002000000000A0
:1043E0000D0A424C41434B424F5820434F4E4E45DD
:1043F0004354204F4B0D0A0000F009F8002801D06B
:10440000FFF7C8FF0020FBF7C1FE00F002F8012013
:10441000704700F001B800000746384600F002F887
:10442000FBE7000080B5C046C046024A11001820D4
:10443000ABBEFBE7260002000D0A5354415455530E
:104440003A4E4F524D414C0D0A0000000D0A535494
:10445000415455533A4E4F524D414C0D0A00000005
:104460005354415455533A414C41524D00000000C1
:104470000148804701480047394200088D44000840
:10448000504C414E534845540D0A0000C046C046AA
:10449000C046C046FFF7B0FF0702690C07007C006A
:1044A0000753544F500D0A00244750524D4300000B
:1044B000253032640000000046460000FFF794BC3F
:1044C000FFF793BCFFF799BCFFF798BCFFF797BCC9
:1044D000FFF796BCFFF795BCFFF794BCFFF793BCC2
:1044E000FFF7FEBFFFF7FEBFFFF7FEBFFFF7FEBF00
:1044F000FFF7FEBFFFF7FEBFFFF7FEBFFFF7FEBFF0
:10450000FFF7FEBFFFF7FEBFFFF7FEBFFFF7FEBFDF
:10451000FFF7FEBFFFF7FBBCFFF7FEBFFFF7FEBFD5
:10452000FFF7FEBFFFF7FEBFFFF77FBCFFF7FEBF41
:10453000FFF7FEBFFFF7FEBFFFF7FEBFFFF7F5BCBB
:10454000FFF7FEBFFFF7FEBFFFF7FEBFFFF7FEBF9F
:10455000FFF7FEBFFFF7FEBFFFF7FEBFFFF7FEBF8F
:10456000FFF7FEBFFFF7FEBFFFF7FEBFFFF7FEBF7F
:10457000FFF7FEBFFFF7FEBFFFF7FEBFFFF7FEBF6F
:10458000FFF742BDFFF7FEBFFFF7FEBFFFF7FEBF1D
:10459000FFF7FEBFFFF7FEBFFFF7FEBFFFF7FEBF4F
:1045A000FFF7FEBFFFF7FEBFFFF7FEBFFFF7FEBF3F
:1045B000FFF7FEBFFFF7FEBFFFF7FEBFFFF7FEBF2F
:1045C000FFF7FEBFFFF7FEBFFFF7FEBFFFF7FEBF1F
:1045D00000000000010203040102030406070809A9
:1045E000555566667777000002040608007E56037C
:040000050800448D1E
:00000001FF
